{
  "_format": "hh-sol-artifact-1",
  "contractName": "NFT",
  "sourceName": "contracts/NFT.sol",
  "abi": [
    {
      "inputs": [],
      "stateMutability": "nonpayable",
      "type": "constructor"
    },
    {
      "anonymous": false,
      "inputs": [
        {
          "indexed": true,
          "internalType": "address",
          "name": "owner",
          "type": "address"
        },
        {
          "indexed": true,
          "internalType": "address",
          "name": "approved",
          "type": "address"
        },
        {
          "indexed": true,
          "internalType": "uint256",
          "name": "tokenId",
          "type": "uint256"
        }
      ],
      "name": "Approval",
      "type": "event"
    },
    {
      "anonymous": false,
      "inputs": [
        {
          "indexed": true,
          "internalType": "address",
          "name": "owner",
          "type": "address"
        },
        {
          "indexed": true,
          "internalType": "address",
          "name": "operator",
          "type": "address"
        },
        {
          "indexed": false,
          "internalType": "bool",
          "name": "approved",
          "type": "bool"
        }
      ],
      "name": "ApprovalForAll",
      "type": "event"
    },
    {
      "anonymous": false,
      "inputs": [
        {
          "indexed": true,
          "internalType": "address",
          "name": "from",
          "type": "address"
        },
        {
          "indexed": true,
          "internalType": "address",
          "name": "to",
          "type": "address"
        },
        {
          "indexed": true,
          "internalType": "uint256",
          "name": "tokenId",
          "type": "uint256"
        }
      ],
      "name": "Transfer",
      "type": "event"
    },
    {
      "inputs": [
        {
          "internalType": "address",
          "name": "to",
          "type": "address"
        },
        {
          "internalType": "uint256",
          "name": "tokenId",
          "type": "uint256"
        }
      ],
      "name": "approve",
      "outputs": [],
      "stateMutability": "nonpayable",
      "type": "function"
    },
    {
      "inputs": [
        {
          "internalType": "address",
          "name": "owner",
          "type": "address"
        }
      ],
      "name": "balanceOf",
      "outputs": [
        {
          "internalType": "uint256",
          "name": "",
          "type": "uint256"
        }
      ],
      "stateMutability": "view",
      "type": "function"
    },
    {
      "inputs": [
        {
          "internalType": "uint256",
          "name": "tokenId",
          "type": "uint256"
        }
      ],
      "name": "getApproved",
      "outputs": [
        {
          "internalType": "address",
          "name": "",
          "type": "address"
        }
      ],
      "stateMutability": "view",
      "type": "function"
    },
    {
      "inputs": [
        {
          "internalType": "address",
          "name": "owner",
          "type": "address"
        },
        {
          "internalType": "address",
          "name": "operator",
          "type": "address"
        }
      ],
      "name": "isApprovedForAll",
      "outputs": [
        {
          "internalType": "bool",
          "name": "",
          "type": "bool"
        }
      ],
      "stateMutability": "view",
      "type": "function"
    },
    {
      "inputs": [],
      "name": "mint",
      "outputs": [],
      "stateMutability": "payable",
      "type": "function"
    },
    {
      "inputs": [],
      "name": "name",
      "outputs": [
        {
          "internalType": "string",
          "name": "",
          "type": "string"
        }
      ],
      "stateMutability": "view",
      "type": "function"
    },
    {
      "inputs": [
        {
          "internalType": "uint256",
          "name": "tokenId",
          "type": "uint256"
        }
      ],
      "name": "ownerOf",
      "outputs": [
        {
          "internalType": "address",
          "name": "",
          "type": "address"
        }
      ],
      "stateMutability": "view",
      "type": "function"
    },
    {
      "inputs": [
        {
          "internalType": "uint256",
          "name": "tokenId",
          "type": "uint256"
        }
      ],
      "name": "pickRandomFirstWord",
      "outputs": [
        {
          "internalType": "string",
          "name": "",
          "type": "string"
        }
      ],
      "stateMutability": "view",
      "type": "function"
    },
    {
      "inputs": [
        {
          "internalType": "uint256",
          "name": "tokenId",
          "type": "uint256"
        }
      ],
      "name": "pickRandomSecondWord",
      "outputs": [
        {
          "internalType": "string",
          "name": "",
          "type": "string"
        }
      ],
      "stateMutability": "view",
      "type": "function"
    },
    {
      "inputs": [
        {
          "internalType": "uint256",
          "name": "tokenId",
          "type": "uint256"
        }
      ],
      "name": "pickRandomThirdWord",
      "outputs": [
        {
          "internalType": "string",
          "name": "",
          "type": "string"
        }
      ],
      "stateMutability": "view",
      "type": "function"
    },
    {
      "inputs": [
        {
          "internalType": "address",
          "name": "from",
          "type": "address"
        },
        {
          "internalType": "address",
          "name": "to",
          "type": "address"
        },
        {
          "internalType": "uint256",
          "name": "tokenId",
          "type": "uint256"
        }
      ],
      "name": "safeTransferFrom",
      "outputs": [],
      "stateMutability": "nonpayable",
      "type": "function"
    },
    {
      "inputs": [
        {
          "internalType": "address",
          "name": "from",
          "type": "address"
        },
        {
          "internalType": "address",
          "name": "to",
          "type": "address"
        },
        {
          "internalType": "uint256",
          "name": "tokenId",
          "type": "uint256"
        },
        {
          "internalType": "bytes",
          "name": "_data",
          "type": "bytes"
        }
      ],
      "name": "safeTransferFrom",
      "outputs": [],
      "stateMutability": "nonpayable",
      "type": "function"
    },
    {
      "inputs": [
        {
          "internalType": "address",
          "name": "operator",
          "type": "address"
        },
        {
          "internalType": "bool",
          "name": "approved",
          "type": "bool"
        }
      ],
      "name": "setApprovalForAll",
      "outputs": [],
      "stateMutability": "nonpayable",
      "type": "function"
    },
    {
      "inputs": [
        {
          "internalType": "bytes4",
          "name": "interfaceId",
          "type": "bytes4"
        }
      ],
      "name": "supportsInterface",
      "outputs": [
        {
          "internalType": "bool",
          "name": "",
          "type": "bool"
        }
      ],
      "stateMutability": "view",
      "type": "function"
    },
    {
      "inputs": [],
      "name": "symbol",
      "outputs": [
        {
          "internalType": "string",
          "name": "",
          "type": "string"
        }
      ],
      "stateMutability": "view",
      "type": "function"
    },
    {
      "inputs": [
        {
          "internalType": "uint256",
          "name": "tokenId",
          "type": "uint256"
        }
      ],
      "name": "tokenURI",
      "outputs": [
        {
          "internalType": "string",
          "name": "",
          "type": "string"
        }
      ],
      "stateMutability": "view",
      "type": "function"
    },
    {
      "inputs": [
        {
          "internalType": "address",
          "name": "from",
          "type": "address"
        },
        {
          "internalType": "address",
          "name": "to",
          "type": "address"
        },
        {
          "internalType": "uint256",
          "name": "tokenId",
          "type": "uint256"
        }
      ],
      "name": "transferFrom",
      "outputs": [],
      "stateMutability": "nonpayable",
      "type": "function"
    }
  ],
  "bytecode": "0x608060405260405180610160016040528061012f81526020016200506661012f913960089080519060200190620000389291906200132e565b506040518061030001604052806040518060400160405280600681526020017f416672616964000000000000000000000000000000000000000000000000000081525081526020016040518060400160405280600981526020017f416767726965766564000000000000000000000000000000000000000000000081525081526020016040518060400160405280600881526020017f416769746174656400000000000000000000000000000000000000000000000081525081526020016040518060400160405280600981526020017f416772656561626c65000000000000000000000000000000000000000000000081525081526020016040518060400160405280600681526020017f416d617a6564000000000000000000000000000000000000000000000000000081525081526020016040518060400160405280600381526020017f426164000000000000000000000000000000000000000000000000000000000081525081526020016040518060400160405280600881526020017f426572656176656400000000000000000000000000000000000000000000000081525081526020016040518060400160405280600a81526020017f426577696c64657265640000000000000000000000000000000000000000000081525081526020016040518060400160405280600581526020017f426f72656400000000000000000000000000000000000000000000000000000081525081526020016040518060400160405280600981526020017f427261766543616c6d000000000000000000000000000000000000000000000081525081526020016040518060400160405280600781526020017f4361726566756c0000000000000000000000000000000000000000000000000081525081526020016040518060400160405280600781526020017f4365727461696e0000000000000000000000000000000000000000000000000081525081526020016040518060400160405280600781526020017f436861726765640000000000000000000000000000000000000000000000000081525081526020016040518060400160405280600881526020017f436861726d696e6700000000000000000000000000000000000000000000000081525081526020016040518060400160405280600981526020017f44616e6765726f7573000000000000000000000000000000000000000000000081525081526020016040518060400160405280600881526020017f446566656174656400000000000000000000000000000000000000000000000081525081526020016040518060400160405280600781526020017f44656669616e740000000000000000000000000000000000000000000000000081525081526020016040518060400160405280600a81526020017f44656c6967687466756c0000000000000000000000000000000000000000000081525081526020016040518060400160405280600981526020017f446570726573736564000000000000000000000000000000000000000000000081525081526020016040518060400160405280600581526020017f456167657200000000000000000000000000000000000000000000000000000081525081526020016040518060400160405280600681526020017f456c61746564000000000000000000000000000000000000000000000000000081525081526020016040518060400160405280600b81526020017f456d62617272617373656400000000000000000000000000000000000000000081525081526020016040518060400160405280600a81526020017f456e6368616e74696e670000000000000000000000000000000000000000000081525081526020016040518060400160405280600b81526020017f456e636f75726167696e670000000000000000000000000000000000000000008152508152506009906018620005dd929190620013bf565b506040518061032001604052806040518060400160405280600381526020017f526564000000000000000000000000000000000000000000000000000000000081525081526020016040518060400160405280600481526020017f426c75650000000000000000000000000000000000000000000000000000000081525081526020016040518060400160405280600581526020017f477265656e00000000000000000000000000000000000000000000000000000081525081526020016040518060400160405280600481526020017f50696e6b0000000000000000000000000000000000000000000000000000000081525081526020016040518060400160405280600681526020017f4f72616e6765000000000000000000000000000000000000000000000000000081525081526020016040518060400160405280600681526020017f59656c6c6f77000000000000000000000000000000000000000000000000000081525081526020016040518060400160405280600581526020017f426c61636b00000000000000000000000000000000000000000000000000000081525081526020016040518060400160405280600581526020017f576869746500000000000000000000000000000000000000000000000000000081525081526020016040518060400160405280600681526020017f507572706c65000000000000000000000000000000000000000000000000000081525081526020016040518060400160405280600481526020017f4379616e0000000000000000000000000000000000000000000000000000000081525081526020016040518060400160405280600781526020017f4d6167656e74610000000000000000000000000000000000000000000000000081525081526020016040518060400160405280600581526020017f42726f776e00000000000000000000000000000000000000000000000000000081525081526020016040518060400160405280600681526020017f56696f6c6574000000000000000000000000000000000000000000000000000081525081526020016040518060400160405280600681526020017f436f70706572000000000000000000000000000000000000000000000000000081525081526020016040518060400160405280600481526020017f477265790000000000000000000000000000000000000000000000000000000081525081526020016040518060400160405280600581526020017f437265616d00000000000000000000000000000000000000000000000000000081525081526020016040518060400160405280600481526020017f4c696d650000000000000000000000000000000000000000000000000000000081525081526020016040518060400160405280600581526020017f426569676500000000000000000000000000000000000000000000000000000081525081526020016040518060400160405280600581526020017f416d62657200000000000000000000000000000000000000000000000000000081525081526020016040518060400160405280600681526020017f416c6d6f6e64000000000000000000000000000000000000000000000000000081525081526020016040518060400160405280600481526020017f417175610000000000000000000000000000000000000000000000000000000081525081526020016040518060400160405280600881526020017f4567677368656c6c00000000000000000000000000000000000000000000000081525081526020016040518060400160405280600581526020017f466c616d6500000000000000000000000000000000000000000000000000000081525081526020016040518060400160405280600481526020017f466c61780000000000000000000000000000000000000000000000000000000081525081526020016040518060400160405280600581526020017f45626f6e79000000000000000000000000000000000000000000000000000000815250815250600a90601962000bbd92919062001426565b506040518061030001604052806040518060400160405280600781526020017f42756666616c6f0000000000000000000000000000000000000000000000000081525081526020016040518060400160405280600681526020017f526162626974000000000000000000000000000000000000000000000000000081525081526020016040518060400160405280600381526020017f446f67000000000000000000000000000000000000000000000000000000000081525081526020016040518060400160405280600681526020017f4261626f6f6e000000000000000000000000000000000000000000000000000081525081526020016040518060400160405280600381526020017f426174000000000000000000000000000000000000000000000000000000000081525081526020016040518060400160405280600381526020017f466f78000000000000000000000000000000000000000000000000000000000081525081526020016040518060400160405280600781526020017f436865657461680000000000000000000000000000000000000000000000000081525081526020016040518060400160405280600a81526020017f4368696d70616e7a65650000000000000000000000000000000000000000000081525081526020016040518060400160405280600681526020017f4d6f6e6b6579000000000000000000000000000000000000000000000000000081525081526020016040518060400160405280600881526020017f4d6f6e676f6f736500000000000000000000000000000000000000000000000081525081526020016040518060400160405280600881526020017f456c657068616e7400000000000000000000000000000000000000000000000081525081526020016040518060400160405280600481526020017f576f6c660000000000000000000000000000000000000000000000000000000081525081526020016040518060400160405280600581526020017f5a6562726100000000000000000000000000000000000000000000000000000081525081526020016040518060400160405280600881526020017f4865646765686f6700000000000000000000000000000000000000000000000081525081526020016040518060400160405280600481526020017f4c696f6e0000000000000000000000000000000000000000000000000000000081525081526020016040518060400160405280600481526020017f426561720000000000000000000000000000000000000000000000000000000081525081526020016040518060400160405280600781526020017f476f72696c6c610000000000000000000000000000000000000000000000000081525081526020016040518060400160405280600781526020017f4f7374726963680000000000000000000000000000000000000000000000000081525081526020016040518060400160405280600581526020017f5268696e6f00000000000000000000000000000000000000000000000000000081525081526020016040518060400160405280600781526020017f57617274686f670000000000000000000000000000000000000000000000000081525081526020016040518060400160405280600781526020017f476972616666650000000000000000000000000000000000000000000000000081525081526020016040518060400160405280600581526020017f4879656e6100000000000000000000000000000000000000000000000000000081525081526020016040518060400160405280600481526020017f446565720000000000000000000000000000000000000000000000000000000081525081526020016040518060400160405280600981526020017f4d7573654d6f7573650000000000000000000000000000000000000000000000815250815250600b90601862001162929190620013bf565b503480156200117057600080fd5b506040518060400160405280600c81526020017f416e6f6e796d6f75734e465400000000000000000000000000000000000000008152506040518060400160405280600381526020017f57414100000000000000000000000000000000000000000000000000000000008152508160009080519060200190620011f59291906200132e565b5080600190805190602001906200120e9291906200132e565b5050506200125c6040518060400160405280601e81526020017f54686973206973206d79204e465420636f6e74726163742e20576f61682100008152506200126260201b620012b31760201c565b62001647565b62001302816040516024016200127991906200155b565b6040516020818303038152906040527f41304fac000000000000000000000000000000000000000000000000000000007bffffffffffffffffffffffffffffffffffffffffffffffffffffffff19166020820180517bffffffffffffffffffffffffffffffffffffffffffffffffffffffff83818316178352505050506200130560201b60201c565b50565b60008151905060006a636f6e736f6c652e6c6f679050602083016000808483855afa5050505050565b8280546200133c90620015d1565b90600052602060002090601f016020900481019282620013605760008555620013ac565b82601f106200137b57805160ff1916838001178555620013ac565b82800160010185558215620013ac579182015b82811115620013ab5782518255916020019190600101906200138e565b5b509050620013bb91906200148d565b5090565b82805482825590600052602060002090810192821562001413579160200282015b8281111562001412578251829080519060200190620014019291906200132e565b5091602001919060010190620013e0565b5b509050620014229190620014ac565b5090565b8280548282559060005260206000209081019282156200147a579160200282015b8281111562001479578251829080519060200190620014689291906200132e565b509160200191906001019062001447565b5b509050620014899190620014ac565b5090565b5b80821115620014a85760008160009055506001016200148e565b5090565b5b80821115620014d05760008181620014c69190620014d4565b50600101620014ad565b5090565b508054620014e290620015d1565b6000825580601f10620014f6575062001517565b601f0160209004906000526020600020908101906200151691906200148d565b5b50565b600062001527826200157f565b6200153381856200158a565b9350620015458185602086016200159b565b620015508162001636565b840191505092915050565b600060208201905081810360008301526200157781846200151a565b905092915050565b600081519050919050565b600082825260208201905092915050565b60005b83811015620015bb5780820151818401526020810190506200159e565b83811115620015cb576000848401525b50505050565b60006002820490506001821680620015ea57607f821691505b6020821081141562001601576200160062001607565b5b50919050565b7f4e487b7100000000000000000000000000000000000000000000000000000000600052602260045260246000fd5b6000601f19601f8301169050919050565b613a0f80620016576000396000f3fe6080604052600436106100fe5760003560e01c80636352211e11610095578063b187301f11610064578063b187301f14610338578063b88d4fde14610375578063c575757a1461039e578063c87b56dd146103db578063e985e9c514610418576100fe565b80636352211e1461026a57806370a08231146102a757806395d89b41146102e4578063a22cb4651461030f576100fe565b80631249c58b116100d15780631249c58b146101d157806323b872dd146101db5780632de38d681461020457806342842e0e14610241576100fe565b806301ffc9a71461010357806306fdde0314610140578063081812fc1461016b578063095ea7b3146101a8575b600080fd5b34801561010f57600080fd5b5061012a60048036038101906101259190612546565b610455565b6040516101379190612c27565b60405180910390f35b34801561014c57600080fd5b50610155610537565b6040516101629190612c42565b60405180910390f35b34801561017757600080fd5b50610192600480360381019061018d9190612598565b6105c9565b60405161019f9190612bc0565b60405180910390f35b3480156101b457600080fd5b506101cf60048036038101906101ca919061250a565b61064e565b005b6101d9610766565b005b3480156101e757600080fd5b5061020260048036038101906101fd9190612404565b610914565b005b34801561021057600080fd5b5061022b60048036038101906102269190612598565b610974565b6040516102389190612c42565b60405180910390f35b34801561024d57600080fd5b5061026860048036038101906102639190612404565b610a92565b005b34801561027657600080fd5b50610291600480360381019061028c9190612598565b610ab2565b60405161029e9190612bc0565b60405180910390f35b3480156102b357600080fd5b506102ce60048036038101906102c9919061239f565b610b64565b6040516102db9190612ea2565b60405180910390f35b3480156102f057600080fd5b506102f9610c1c565b6040516103069190612c42565b60405180910390f35b34801561031b57600080fd5b50610336600480360381019061033191906124ce565b610cae565b005b34801561034457600080fd5b5061035f600480360381019061035a9190612598565b610e2f565b60405161036c9190612c42565b60405180910390f35b34801561038157600080fd5b5061039c60048036038101906103979190612453565b610f4d565b005b3480156103aa57600080fd5b506103c560048036038101906103c09190612598565b610faf565b6040516103d29190612c42565b60405180910390f35b3480156103e757600080fd5b5061040260048036038101906103fd9190612598565b6110cd565b60405161040f9190612c42565b60405180910390f35b34801561042457600080fd5b5061043f600480360381019061043a91906123c8565b61121f565b60405161044c9190612c27565b60405180910390f35b60007f80ac58cd000000000000000000000000000000000000000000000000000000007bffffffffffffffffffffffffffffffffffffffffffffffffffffffff1916827bffffffffffffffffffffffffffffffffffffffffffffffffffffffff1916148061052057507f5b5e139f000000000000000000000000000000000000000000000000000000007bffffffffffffffffffffffffffffffffffffffffffffffffffffffff1916827bffffffffffffffffffffffffffffffffffffffffffffffffffffffff1916145b80610530575061052f8261134c565b5b9050919050565b60606000805461054690613136565b80601f016020809104026020016040519081016040528092919081815260200182805461057290613136565b80156105bf5780601f10610594576101008083540402835291602001916105bf565b820191906000526020600020905b8154815290600101906020018083116105a257829003601f168201915b5050505050905090565b60006105d4826113b6565b610613576040517f08c379a000000000000000000000000000000000000000000000000000000000815260040161060a90612e02565b60405180910390fd5b6004600083815260200190815260200160002060009054906101000a900473ffffffffffffffffffffffffffffffffffffffff169050919050565b600061065982610ab2565b90508073ffffffffffffffffffffffffffffffffffffffff168373ffffffffffffffffffffffffffffffffffffffff1614156106ca576040517f08c379a00000000000000000000000000000000000000000000000000000000081526004016106c190612e62565b60405180910390fd5b8073ffffffffffffffffffffffffffffffffffffffff166106e9611422565b73ffffffffffffffffffffffffffffffffffffffff161480610718575061071781610712611422565b61121f565b5b610757576040517f08c379a000000000000000000000000000000000000000000000000000000000815260040161074e90612d42565b60405180910390fd5b610761838361142a565b505050565b600061077260076114e3565b9050600061077f82610974565b9050600061078c83610e2f565b9050600061079984610faf565b905060008383836040516020016107b293929190612a93565b604051602081830303815290604052905060006008826040516020016107d9929190612ac4565b6040516020818303038152906040529050600061081e836107f9846114f1565b60405160200161080a929190612b37565b6040516020818303038152906040526114f1565b90506000816040516020016108339190612b9e565b60405160208183030381529060405290506108826040518060400160405280601581526020017f0a2d2d2d2d2d2d2d2d2d2d2d2d2d2d2d2d2d2d2d2d00000000000000000000008152506112b3565b61088b816112b3565b6108c96040518060400160405280601581526020017f2d2d2d2d2d2d2d2d2d2d2d2d2d2d2d2d2d2d2d2d0a00000000000000000000008152506112b3565b6108d333896116af565b6108dd88826116cd565b610900604051806060016040528060258152602001613975602591398933611741565b61090a60076117e0565b5050505050505050565b61092561091f611422565b826117f6565b610964576040517f08c379a000000000000000000000000000000000000000000000000000000000815260040161095b90612e82565b60405180910390fd5b61096f8383836118d4565b505050565b606060006109a861098484611b30565b6040516020016109949190612b7c565b604051602081830303815290604052611cdd565b9050600980549050816109bb91906131e2565b9050600981815481106109f7577f4e487b7100000000000000000000000000000000000000000000000000000000600052603260045260246000fd5b906000526020600020018054610a0c90613136565b80601f0160208091040260200160405190810160405280929190818152602001828054610a3890613136565b8015610a855780601f10610a5a57610100808354040283529160200191610a85565b820191906000526020600020905b815481529060010190602001808311610a6857829003601f168201915b5050505050915050919050565b610aad83838360405180602001604052806000815250610f4d565b505050565b6000806002600084815260200190815260200160002060009054906101000a900473ffffffffffffffffffffffffffffffffffffffff169050600073ffffffffffffffffffffffffffffffffffffffff168173ffffffffffffffffffffffffffffffffffffffff161415610b5b576040517f08c379a0000000000000000000000000000000000000000000000000000000008152600401610b5290612d82565b60405180910390fd5b80915050919050565b60008073ffffffffffffffffffffffffffffffffffffffff168273ffffffffffffffffffffffffffffffffffffffff161415610bd5576040517f08c379a0000000000000000000000000000000000000000000000000000000008152600401610bcc90612d62565b60405180910390fd5b600360008373ffffffffffffffffffffffffffffffffffffffff1673ffffffffffffffffffffffffffffffffffffffff168152602001908152602001600020549050919050565b606060018054610c2b90613136565b80601f0160208091040260200160405190810160405280929190818152602001828054610c5790613136565b8015610ca45780601f10610c7957610100808354040283529160200191610ca4565b820191906000526020600020905b815481529060010190602001808311610c8757829003601f168201915b5050505050905090565b610cb6611422565b73ffffffffffffffffffffffffffffffffffffffff168273ffffffffffffffffffffffffffffffffffffffff161415610d24576040517f08c379a0000000000000000000000000000000000000000000000000000000008152600401610d1b90612d02565b60405180910390fd5b8060056000610d31611422565b73ffffffffffffffffffffffffffffffffffffffff1673ffffffffffffffffffffffffffffffffffffffff16815260200190815260200160002060008473ffffffffffffffffffffffffffffffffffffffff1673ffffffffffffffffffffffffffffffffffffffff16815260200190815260200160002060006101000a81548160ff0219169083151502179055508173ffffffffffffffffffffffffffffffffffffffff16610dde611422565b73ffffffffffffffffffffffffffffffffffffffff167f17307eab39ab6107e8899845ad3d59bd9653f200f220920489ca2b5937696c3183604051610e239190612c27565b60405180910390a35050565b60606000610e63610e3f84611b30565b604051602001610e4f9190612b15565b604051602081830303815290604052611cdd565b9050600a8054905081610e7691906131e2565b9050600a8181548110610eb2577f4e487b7100000000000000000000000000000000000000000000000000000000600052603260045260246000fd5b906000526020600020018054610ec790613136565b80601f0160208091040260200160405190810160405280929190818152602001828054610ef390613136565b8015610f405780601f10610f1557610100808354040283529160200191610f40565b820191906000526020600020905b815481529060010190602001808311610f2357829003601f168201915b5050505050915050919050565b610f5e610f58611422565b836117f6565b610f9d576040517f08c379a0000000000000000000000000000000000000000000000000000000008152600401610f9490612e82565b60405180910390fd5b610fa984848484611d10565b50505050565b60606000610fe3610fbf84611b30565b604051602001610fcf9190612af3565b604051602081830303815290604052611cdd565b9050600b8054905081610ff691906131e2565b9050600b8181548110611032577f4e487b7100000000000000000000000000000000000000000000000000000000600052603260045260246000fd5b90600052602060002001805461104790613136565b80601f016020809104026020016040519081016040528092919081815260200182805461107390613136565b80156110c05780601f10611095576101008083540402835291602001916110c0565b820191906000526020600020905b8154815290600101906020018083116110a357829003601f168201915b5050505050915050919050565b60606110d8826113b6565b611117576040517f08c379a000000000000000000000000000000000000000000000000000000000815260040161110e90612de2565b60405180910390fd5b600060066000848152602001908152602001600020805461113790613136565b80601f016020809104026020016040519081016040528092919081815260200182805461116390613136565b80156111b05780601f10611185576101008083540402835291602001916111b0565b820191906000526020600020905b81548152906001019060200180831161119357829003601f168201915b5050505050905060006111c1611d6c565b90506000815114156111d757819250505061121a565b60008251111561120c5780826040516020016111f4929190612a6f565b6040516020818303038152906040529250505061121a565b61121584611d83565b925050505b919050565b6000600560008473ffffffffffffffffffffffffffffffffffffffff1673ffffffffffffffffffffffffffffffffffffffff16815260200190815260200160002060008373ffffffffffffffffffffffffffffffffffffffff1673ffffffffffffffffffffffffffffffffffffffff16815260200190815260200160002060009054906101000a900460ff16905092915050565b611349816040516024016112c79190612c42565b6040516020818303038152906040527f41304fac000000000000000000000000000000000000000000000000000000007bffffffffffffffffffffffffffffffffffffffffffffffffffffffff19166020820180517bffffffffffffffffffffffffffffffffffffffffffffffffffffffff8381831617835250505050611e2a565b50565b60007f01ffc9a7000000000000000000000000000000000000000000000000000000007bffffffffffffffffffffffffffffffffffffffffffffffffffffffff1916827bffffffffffffffffffffffffffffffffffffffffffffffffffffffff1916149050919050565b60008073ffffffffffffffffffffffffffffffffffffffff166002600084815260200190815260200160002060009054906101000a900473ffffffffffffffffffffffffffffffffffffffff1673ffffffffffffffffffffffffffffffffffffffff1614159050919050565b600033905090565b816004600083815260200190815260200160002060006101000a81548173ffffffffffffffffffffffffffffffffffffffff021916908373ffffffffffffffffffffffffffffffffffffffff160217905550808273ffffffffffffffffffffffffffffffffffffffff1661149d83610ab2565b73ffffffffffffffffffffffffffffffffffffffff167f8c5be1e5ebec7d5bd14f71427d1e84f3dd0314c0f7b2291e5b200ac8c7c3b92560405160405180910390a45050565b600081600001549050919050565b6060600082519050600081141561151a57604051806020016040528060008152509150506116aa565b6000600360028361152b9190612f6b565b6115359190612fc1565b60046115419190612ff2565b905060006020826115529190612f6b565b67ffffffffffffffff811115611591577f4e487b7100000000000000000000000000000000000000000000000000000000600052604160045260246000fd5b6040519080825280601f01601f1916602001820160405280156115c35781602001600182028036833780820191505090505b509050600060405180606001604052806040815260200161399a604091399050600181016020830160005b868110156116675760038101905062ffffff818a015116603f8160121c168401518060081b905060ff603f83600c1c1686015116810190508060081b905060ff603f8360061c1686015116810190508060081b905060ff603f831686015116810190508060e01b905080845260048401935050506115ee565b50600386066001811461168157600281146116915761169c565b613d3d60f01b600283035261169c565b603d60f81b60018303525b508484525050819450505050505b919050565b6116c9828260405180602001604052806000815250611e53565b5050565b6116d6826113b6565b611715576040517f08c379a000000000000000000000000000000000000000000000000000000000815260040161170c90612da2565b60405180910390fd5b8060066000848152602001908152602001600020908051906020019061173c92919061222b565b505050565b6117db83838360405160240161175993929190612c64565b6040516020818303038152906040527fe3849f79000000000000000000000000000000000000000000000000000000007bffffffffffffffffffffffffffffffffffffffffffffffffffffffff19166020820180517bffffffffffffffffffffffffffffffffffffffffffffffffffffffff8381831617835250505050611e2a565b505050565b6001816000016000828254019250508190555050565b6000611801826113b6565b611840576040517f08c379a000000000000000000000000000000000000000000000000000000000815260040161183790612d22565b60405180910390fd5b600061184b83610ab2565b90508073ffffffffffffffffffffffffffffffffffffffff168473ffffffffffffffffffffffffffffffffffffffff1614806118ba57508373ffffffffffffffffffffffffffffffffffffffff166118a2846105c9565b73ffffffffffffffffffffffffffffffffffffffff16145b806118cb57506118ca818561121f565b5b91505092915050565b8273ffffffffffffffffffffffffffffffffffffffff166118f482610ab2565b73ffffffffffffffffffffffffffffffffffffffff161461194a576040517f08c379a000000000000000000000000000000000000000000000000000000000815260040161194190612e22565b60405180910390fd5b600073ffffffffffffffffffffffffffffffffffffffff168273ffffffffffffffffffffffffffffffffffffffff1614156119ba576040517f08c379a00000000000000000000000000000000000000000000000000000000081526004016119b190612ce2565b60405180910390fd5b6119c5838383611eae565b6119d060008261142a565b6001600360008573ffffffffffffffffffffffffffffffffffffffff1673ffffffffffffffffffffffffffffffffffffffff1681526020019081526020016000206000828254611a20919061304c565b925050819055506001600360008473ffffffffffffffffffffffffffffffffffffffff1673ffffffffffffffffffffffffffffffffffffffff1681526020019081526020016000206000828254611a779190612f6b565b92505081905550816002600083815260200190815260200160002060006101000a81548173ffffffffffffffffffffffffffffffffffffffff021916908373ffffffffffffffffffffffffffffffffffffffff160217905550808273ffffffffffffffffffffffffffffffffffffffff168473ffffffffffffffffffffffffffffffffffffffff167fddf252ad1be2c89b69c2b068fc378daa952ba7f163c4a11628f55a4df523b3ef60405160405180910390a4505050565b60606000821415611b78576040518060400160405280600181526020017f30000000000000000000000000000000000000000000000000000000000000008152509050611cd8565b600082905060005b60008214611baa578080611b9390613199565b915050600a82611ba39190612fc1565b9150611b80565b60008167ffffffffffffffff811115611bec577f4e487b7100000000000000000000000000000000000000000000000000000000600052604160045260246000fd5b6040519080825280601f01601f191660200182016040528015611c1e5781602001600182028036833780820191505090505b5090505b60008514611cd157600182611c37919061304c565b9150600a85611c4691906131e2565b6030611c529190612f6b565b60f81b818381518110611c8e577f4e487b7100000000000000000000000000000000000000000000000000000000600052603260045260246000fd5b60200101907effffffffffffffffffffffffffffffffffffffffffffffffffffffffffffff1916908160001a905350600a85611cca9190612fc1565b9450611c22565b8093505050505b919050565b600081604051602001611cf09190612a58565b6040516020818303038152906040528051906020012060001c9050919050565b611d1b8484846118d4565b611d2784848484611eb3565b611d66576040517f08c379a0000000000000000000000000000000000000000000000000000000008152600401611d5d90612ca2565b60405180910390fd5b50505050565b606060405180602001604052806000815250905090565b6060611d8e826113b6565b611dcd576040517f08c379a0000000000000000000000000000000000000000000000000000000008152600401611dc490612e42565b60405180910390fd5b6000611dd7611d6c565b90506000815111611df75760405180602001604052806000815250611e22565b80611e0184611b30565b604051602001611e12929190612a6f565b6040516020818303038152906040525b915050919050565b60008151905060006a636f6e736f6c652e6c6f679050602083016000808483855afa5050505050565b611e5d838361204a565b611e6a6000848484611eb3565b611ea9576040517f08c379a0000000000000000000000000000000000000000000000000000000008152600401611ea090612ca2565b60405180910390fd5b505050565b505050565b6000611ed48473ffffffffffffffffffffffffffffffffffffffff16612218565b1561203d578373ffffffffffffffffffffffffffffffffffffffff1663150b7a02611efd611422565b8786866040518563ffffffff1660e01b8152600401611f1f9493929190612bdb565b602060405180830381600087803b158015611f3957600080fd5b505af1925050508015611f6a57506040513d601f19601f82011682018060405250810190611f67919061256f565b60015b611fed573d8060008114611f9a576040519150601f19603f3d011682016040523d82523d6000602084013e611f9f565b606091505b50600081511415611fe5576040517f08c379a0000000000000000000000000000000000000000000000000000000008152600401611fdc90612ca2565b60405180910390fd5b805181602001fd5b63150b7a0260e01b7bffffffffffffffffffffffffffffffffffffffffffffffffffffffff1916817bffffffffffffffffffffffffffffffffffffffffffffffffffffffff191614915050612042565b600190505b949350505050565b600073ffffffffffffffffffffffffffffffffffffffff168273ffffffffffffffffffffffffffffffffffffffff1614156120ba576040517f08c379a00000000000000000000000000000000000000000000000000000000081526004016120b190612dc2565b60405180910390fd5b6120c3816113b6565b15612103576040517f08c379a00000000000000000000000000000000000000000000000000000000081526004016120fa90612cc2565b60405180910390fd5b61210f60008383611eae565b6001600360008473ffffffffffffffffffffffffffffffffffffffff1673ffffffffffffffffffffffffffffffffffffffff168152602001908152602001600020600082825461215f9190612f6b565b92505081905550816002600083815260200190815260200160002060006101000a81548173ffffffffffffffffffffffffffffffffffffffff021916908373ffffffffffffffffffffffffffffffffffffffff160217905550808273ffffffffffffffffffffffffffffffffffffffff16600073ffffffffffffffffffffffffffffffffffffffff167fddf252ad1be2c89b69c2b068fc378daa952ba7f163c4a11628f55a4df523b3ef60405160405180910390a45050565b600080823b905060008111915050919050565b82805461223790613136565b90600052602060002090601f01602090048101928261225957600085556122a0565b82601f1061227257805160ff19168380011785556122a0565b828001600101855582156122a0579182015b8281111561229f578251825591602001919060010190612284565b5b5090506122ad91906122b1565b5090565b5b808211156122ca5760008160009055506001016122b2565b5090565b60006122e16122dc84612ee2565b612ebd565b9050828152602081018484840111156122f957600080fd5b6123048482856130f4565b509392505050565b60008135905061231b81613918565b92915050565b6000813590506123308161392f565b92915050565b60008135905061234581613946565b92915050565b60008151905061235a81613946565b92915050565b600082601f83011261237157600080fd5b81356123818482602086016122ce565b91505092915050565b6000813590506123998161395d565b92915050565b6000602082840312156123b157600080fd5b60006123bf8482850161230c565b91505092915050565b600080604083850312156123db57600080fd5b60006123e98582860161230c565b92505060206123fa8582860161230c565b9150509250929050565b60008060006060848603121561241957600080fd5b60006124278682870161230c565b93505060206124388682870161230c565b92505060406124498682870161238a565b9150509250925092565b6000806000806080858703121561246957600080fd5b60006124778782880161230c565b94505060206124888782880161230c565b93505060406124998782880161238a565b925050606085013567ffffffffffffffff8111156124b657600080fd5b6124c287828801612360565b91505092959194509250565b600080604083850312156124e157600080fd5b60006124ef8582860161230c565b925050602061250085828601612321565b9150509250929050565b6000806040838503121561251d57600080fd5b600061252b8582860161230c565b925050602061253c8582860161238a565b9150509250929050565b60006020828403121561255857600080fd5b600061256684828501612336565b91505092915050565b60006020828403121561258157600080fd5b600061258f8482850161234b565b91505092915050565b6000602082840312156125aa57600080fd5b60006125b88482850161238a565b91505092915050565b6125ca81613080565b82525050565b6125d981613092565b82525050565b60006125ea82612f28565b6125f48185612f3e565b9350612604818560208601613103565b61260d816132cf565b840191505092915050565b600061262382612f33565b61262d8185612f4f565b935061263d818560208601613103565b612646816132cf565b840191505092915050565b600061265c82612f33565b6126668185612f60565b9350612676818560208601613103565b80840191505092915050565b6000815461268f81613136565b6126998186612f60565b945060018216600081146126b457600181146126c5576126f8565b60ff198316865281860193506126f8565b6126ce85612f13565b60005b838110156126f0578154818901526001820191506020810190506126d1565b838801955050505b50505092915050565b600061270e603283612f4f565b9150612719826132e0565b604082019050919050565b6000612731601c83612f4f565b915061273c8261332f565b602082019050919050565b6000612754600a83612f60565b915061275f82613358565b600a82019050919050565b6000612777607a83612f60565b915061278282613381565b607a82019050919050565b600061279a602483612f4f565b91506127a58261341c565b604082019050919050565b60006127bd601983612f4f565b91506127c88261346b565b602082019050919050565b60006127e0600b83612f60565b91506127eb82613494565b600b82019050919050565b6000612803602c83612f4f565b915061280e826134bd565b604082019050919050565b6000612826600d83612f60565b91506128318261350c565b600d82019050919050565b6000612849603883612f4f565b915061285482613535565b604082019050919050565b600061286c602a83612f4f565b915061287782613584565b604082019050919050565b600061288f602983612f4f565b915061289a826135d3565b604082019050919050565b60006128b2602e83612f4f565b91506128bd82613622565b604082019050919050565b60006128d5600283612f60565b91506128e082613671565b600282019050919050565b60006128f8602083612f4f565b91506129038261369a565b602082019050919050565b600061291b603183612f4f565b9150612926826136c3565b604082019050919050565b600061293e602c83612f4f565b915061294982613712565b604082019050919050565b6000612961602983612f4f565b915061296c82613761565b604082019050919050565b6000612984602f83612f4f565b915061298f826137b0565b604082019050919050565b60006129a7600a83612f60565b91506129b2826137ff565b600a82019050919050565b60006129ca602183612f4f565b91506129d582613828565b604082019050919050565b60006129ed600a83612f60565b91506129f882613877565b600a82019050919050565b6000612a10601d83612f60565b9150612a1b826138a0565b601d82019050919050565b6000612a33603183612f4f565b9150612a3e826138c9565b604082019050919050565b612a52816130ea565b82525050565b6000612a648284612651565b915081905092915050565b6000612a7b8285612651565b9150612a878284612651565b91508190509392505050565b6000612a9f8286612651565b9150612aab8285612651565b9150612ab78284612651565b9150819050949350505050565b6000612ad08285612682565b9150612adc8284612651565b9150612ae782612819565b91508190509392505050565b6000612afe82612747565b9150612b0a8284612651565b915081905092915050565b6000612b20826127d3565b9150612b2c8284612651565b915081905092915050565b6000612b428261299a565b9150612b4e8285612651565b9150612b598261276a565b9150612b658284612651565b9150612b70826128c8565b91508190509392505050565b6000612b87826129e0565b9150612b938284612651565b915081905092915050565b6000612ba982612a03565b9150612bb58284612651565b915081905092915050565b6000602082019050612bd560008301846125c1565b92915050565b6000608082019050612bf060008301876125c1565b612bfd60208301866125c1565b612c0a6040830185612a49565b8181036060830152612c1c81846125df565b905095945050505050565b6000602082019050612c3c60008301846125d0565b92915050565b60006020820190508181036000830152612c5c8184612618565b905092915050565b60006060820190508181036000830152612c7e8186612618565b9050612c8d6020830185612a49565b612c9a60408301846125c1565b949350505050565b60006020820190508181036000830152612cbb81612701565b9050919050565b60006020820190508181036000830152612cdb81612724565b9050919050565b60006020820190508181036000830152612cfb8161278d565b9050919050565b60006020820190508181036000830152612d1b816127b0565b9050919050565b60006020820190508181036000830152612d3b816127f6565b9050919050565b60006020820190508181036000830152612d5b8161283c565b9050919050565b60006020820190508181036000830152612d7b8161285f565b9050919050565b60006020820190508181036000830152612d9b81612882565b9050919050565b60006020820190508181036000830152612dbb816128a5565b9050919050565b60006020820190508181036000830152612ddb816128eb565b9050919050565b60006020820190508181036000830152612dfb8161290e565b9050919050565b60006020820190508181036000830152612e1b81612931565b9050919050565b60006020820190508181036000830152612e3b81612954565b9050919050565b60006020820190508181036000830152612e5b81612977565b9050919050565b60006020820190508181036000830152612e7b816129bd565b9050919050565b60006020820190508181036000830152612e9b81612a26565b9050919050565b6000602082019050612eb76000830184612a49565b92915050565b6000612ec7612ed8565b9050612ed38282613168565b919050565b6000604051905090565b600067ffffffffffffffff821115612efd57612efc6132a0565b5b612f06826132cf565b9050602081019050919050565b60008190508160005260206000209050919050565b600081519050919050565b600081519050919050565b600082825260208201905092915050565b600082825260208201905092915050565b600081905092915050565b6000612f76826130ea565b9150612f81836130ea565b9250827fffffffffffffffffffffffffffffffffffffffffffffffffffffffffffffffff03821115612fb657612fb5613213565b5b828201905092915050565b6000612fcc826130ea565b9150612fd7836130ea565b925082612fe757612fe6613242565b5b828204905092915050565b6000612ffd826130ea565b9150613008836130ea565b9250817fffffffffffffffffffffffffffffffffffffffffffffffffffffffffffffffff048311821515161561304157613040613213565b5b828202905092915050565b6000613057826130ea565b9150613062836130ea565b92508282101561307557613074613213565b5b828203905092915050565b600061308b826130ca565b9050919050565b60008115159050919050565b60007fffffffff0000000000000000000000000000000000000000000000000000000082169050919050565b600073ffffffffffffffffffffffffffffffffffffffff82169050919050565b6000819050919050565b82818337600083830152505050565b60005b83811015613121578082015181840152602081019050613106565b83811115613130576000848401525b50505050565b6000600282049050600182168061314e57607f821691505b6020821081141561316257613161613271565b5b50919050565b613171826132cf565b810181811067ffffffffffffffff821117156131905761318f6132a0565b5b80604052505050565b60006131a4826130ea565b91507fffffffffffffffffffffffffffffffffffffffffffffffffffffffffffffffff8214156131d7576131d6613213565b5b600182019050919050565b60006131ed826130ea565b91506131f8836130ea565b92508261320857613207613242565b5b828206905092915050565b7f4e487b7100000000000000000000000000000000000000000000000000000000600052601160045260246000fd5b7f4e487b7100000000000000000000000000000000000000000000000000000000600052601260045260246000fd5b7f4e487b7100000000000000000000000000000000000000000000000000000000600052602260045260246000fd5b7f4e487b7100000000000000000000000000000000000000000000000000000000600052604160045260246000fd5b6000601f19601f8301169050919050565b7f4552433732313a207472616e7366657220746f206e6f6e20455243373231526560008201527f63656976657220696d706c656d656e7465720000000000000000000000000000602082015250565b7f4552433732313a20746f6b656e20616c7265616479206d696e74656400000000600082015250565b7f54484952445f574f524400000000000000000000000000000000000000000000600082015250565b7f222c20226465736372697074696f6e223a20224120686967686c79206163636c60008201527f61696d656420636f6c6c656374696f6e206f6620636f6c6f7266756c20616e6460208201527f20656d6974696f6e616c20616e696d616c732e222c2022696d616765223a202260408201527f646174613a696d6167652f7376672b786d6c3b6261736536342c000000000000606082015250565b7f4552433732313a207472616e7366657220746f20746865207a65726f2061646460008201527f7265737300000000000000000000000000000000000000000000000000000000602082015250565b7f4552433732313a20617070726f766520746f2063616c6c657200000000000000600082015250565b7f5345434f4e445f574f5244000000000000000000000000000000000000000000600082015250565b7f4552433732313a206f70657261746f7220717565727920666f72206e6f6e657860008201527f697374656e7420746f6b656e0000000000000000000000000000000000000000602082015250565b7f3c2f746578743e3c2f7376673e00000000000000000000000000000000000000600082015250565b7f4552433732313a20617070726f76652063616c6c6572206973206e6f74206f7760008201527f6e6572206e6f7220617070726f76656420666f7220616c6c0000000000000000602082015250565b7f4552433732313a2062616c616e636520717565727920666f7220746865207a6560008201527f726f206164647265737300000000000000000000000000000000000000000000602082015250565b7f4552433732313a206f776e657220717565727920666f72206e6f6e657869737460008201527f656e7420746f6b656e0000000000000000000000000000000000000000000000602082015250565b7f45524337323155524953746f726167653a2055524920736574206f66206e6f6e60008201527f6578697374656e7420746f6b656e000000000000000000000000000000000000602082015250565b7f227d000000000000000000000000000000000000000000000000000000000000600082015250565b7f4552433732313a206d696e7420746f20746865207a65726f2061646472657373600082015250565b7f45524337323155524953746f726167653a2055524920717565727920666f722060008201527f6e6f6e6578697374656e7420746f6b656e000000000000000000000000000000602082015250565b7f4552433732313a20617070726f76656420717565727920666f72206e6f6e657860008201527f697374656e7420746f6b656e0000000000000000000000000000000000000000602082015250565b7f4552433732313a207472616e73666572206f6620746f6b656e2074686174206960008201527f73206e6f74206f776e0000000000000000000000000000000000000000000000602082015250565b7f4552433732314d657461646174613a2055524920717565727920666f72206e6f60008201527f6e6578697374656e7420746f6b656e0000000000000000000000000000000000602082015250565b7f7b226e616d65223a202200000000000000000000000000000000000000000000600082015250565b7f4552433732313a20617070726f76616c20746f2063757272656e74206f776e6560008201527f7200000000000000000000000000000000000000000000000000000000000000602082015250565b7f46495253545f574f524400000000000000000000000000000000000000000000600082015250565b7f646174613a6170706c69636174696f6e2f6a736f6e3b6261736536342c000000600082015250565b7f4552433732313a207472616e736665722063616c6c6572206973206e6f74206f60008201527f776e6572206e6f7220617070726f766564000000000000000000000000000000602082015250565b61392181613080565b811461392c57600080fd5b50565b61393881613092565b811461394357600080fd5b50565b61394f8161309e565b811461395a57600080fd5b50565b613966816130ea565b811461397157600080fd5b5056fe416e204e465420772f20494420257320686173206265656e206d696e74656420746f2025734142434445464748494a4b4c4d4e4f505152535455565758595a6162636465666768696a6b6c6d6e6f707172737475767778797a303132333435363738392b2fa26469706673582212206548dec885e22b9ff8c58a7f3c2431bf0ce83ebac8f5cc062cece7cb29d265b364736f6c634300080400333c73766720786d6c6e733d27687474703a2f2f7777772e77332e6f72672f323030302f73766727207072657365727665417370656374526174696f3d27784d696e594d696e206d656574272076696577426f783d273020302033353020333530273e3c7374796c653e2e62617365207b2066696c6c3a2077686974653b20666f6e742d66616d696c793a2073657269663b20666f6e742d73697a653a20323470783b207d3c2f7374796c653e3c726563742077696474683d273130302527206865696768743d2731303025272066696c6c3d27626c61636b27202f3e3c7465787420783d273530252720793d273530252720636c6173733d27626173652720646f6d696e616e742d626173656c696e653d276d6964646c652720746578742d616e63686f723d276d6964646c65273e",
  "linkReferences": {},
  "deployedLinkReferences": {}
}