{
  "_format": "hh-sol-artifact-1",
  "contractName": "NFT",
  "sourceName": "contracts/NFT.sol",
  "abi": [
    {
      "inputs": [],
      "stateMutability": "nonpayable",
      "type": "constructor"
    },
    {
      "anonymous": false,
      "inputs": [
        {
          "indexed": true,
          "internalType": "address",
          "name": "owner",
          "type": "address"
        },
        {
          "indexed": true,
          "internalType": "address",
          "name": "approved",
          "type": "address"
        },
        {
          "indexed": true,
          "internalType": "uint256",
          "name": "tokenId",
          "type": "uint256"
        }
      ],
      "name": "Approval",
      "type": "event"
    },
    {
      "anonymous": false,
      "inputs": [
        {
          "indexed": true,
          "internalType": "address",
          "name": "owner",
          "type": "address"
        },
        {
          "indexed": true,
          "internalType": "address",
          "name": "operator",
          "type": "address"
        },
        {
          "indexed": false,
          "internalType": "bool",
          "name": "approved",
          "type": "bool"
        }
      ],
      "name": "ApprovalForAll",
      "type": "event"
    },
    {
      "anonymous": false,
      "inputs": [
        {
          "indexed": true,
          "internalType": "address",
          "name": "sender",
          "type": "address"
        },
        {
          "indexed": true,
          "internalType": "uint256",
          "name": "tokenId",
          "type": "uint256"
        }
      ],
      "name": "NewNFTMinted",
      "type": "event"
    },
    {
      "anonymous": false,
      "inputs": [
        {
          "indexed": true,
          "internalType": "address",
          "name": "from",
          "type": "address"
        },
        {
          "indexed": true,
          "internalType": "address",
          "name": "to",
          "type": "address"
        },
        {
          "indexed": true,
          "internalType": "uint256",
          "name": "tokenId",
          "type": "uint256"
        }
      ],
      "name": "Transfer",
      "type": "event"
    },
    {
      "inputs": [
        {
          "internalType": "address",
          "name": "to",
          "type": "address"
        },
        {
          "internalType": "uint256",
          "name": "tokenId",
          "type": "uint256"
        }
      ],
      "name": "approve",
      "outputs": [],
      "stateMutability": "nonpayable",
      "type": "function"
    },
    {
      "inputs": [
        {
          "internalType": "address",
          "name": "owner",
          "type": "address"
        }
      ],
      "name": "balanceOf",
      "outputs": [
        {
          "internalType": "uint256",
          "name": "",
          "type": "uint256"
        }
      ],
      "stateMutability": "view",
      "type": "function"
    },
    {
      "inputs": [
        {
          "internalType": "uint256",
          "name": "tokenId",
          "type": "uint256"
        }
      ],
      "name": "getApproved",
      "outputs": [
        {
          "internalType": "address",
          "name": "",
          "type": "address"
        }
      ],
      "stateMutability": "view",
      "type": "function"
    },
    {
      "inputs": [
        {
          "internalType": "address",
          "name": "owner",
          "type": "address"
        },
        {
          "internalType": "address",
          "name": "operator",
          "type": "address"
        }
      ],
      "name": "isApprovedForAll",
      "outputs": [
        {
          "internalType": "bool",
          "name": "",
          "type": "bool"
        }
      ],
      "stateMutability": "view",
      "type": "function"
    },
    {
      "inputs": [],
      "name": "mint",
      "outputs": [],
      "stateMutability": "payable",
      "type": "function"
    },
    {
      "inputs": [],
      "name": "name",
      "outputs": [
        {
          "internalType": "string",
          "name": "",
          "type": "string"
        }
      ],
      "stateMutability": "view",
      "type": "function"
    },
    {
      "inputs": [
        {
          "internalType": "uint256",
          "name": "tokenId",
          "type": "uint256"
        }
      ],
      "name": "ownerOf",
      "outputs": [
        {
          "internalType": "address",
          "name": "",
          "type": "address"
        }
      ],
      "stateMutability": "view",
      "type": "function"
    },
    {
      "inputs": [
        {
          "internalType": "uint256",
          "name": "tokenId",
          "type": "uint256"
        }
      ],
      "name": "pickRandomFirstWord",
      "outputs": [
        {
          "internalType": "string",
          "name": "",
          "type": "string"
        }
      ],
      "stateMutability": "view",
      "type": "function"
    },
    {
      "inputs": [
        {
          "internalType": "uint256",
          "name": "tokenId",
          "type": "uint256"
        }
      ],
      "name": "pickRandomSecondWord",
      "outputs": [
        {
          "internalType": "string",
          "name": "",
          "type": "string"
        }
      ],
      "stateMutability": "view",
      "type": "function"
    },
    {
      "inputs": [
        {
          "internalType": "uint256",
          "name": "tokenId",
          "type": "uint256"
        }
      ],
      "name": "pickRandomThirdWord",
      "outputs": [
        {
          "internalType": "string",
          "name": "",
          "type": "string"
        }
      ],
      "stateMutability": "view",
      "type": "function"
    },
    {
      "inputs": [
        {
          "internalType": "address",
          "name": "from",
          "type": "address"
        },
        {
          "internalType": "address",
          "name": "to",
          "type": "address"
        },
        {
          "internalType": "uint256",
          "name": "tokenId",
          "type": "uint256"
        }
      ],
      "name": "safeTransferFrom",
      "outputs": [],
      "stateMutability": "nonpayable",
      "type": "function"
    },
    {
      "inputs": [
        {
          "internalType": "address",
          "name": "from",
          "type": "address"
        },
        {
          "internalType": "address",
          "name": "to",
          "type": "address"
        },
        {
          "internalType": "uint256",
          "name": "tokenId",
          "type": "uint256"
        },
        {
          "internalType": "bytes",
          "name": "_data",
          "type": "bytes"
        }
      ],
      "name": "safeTransferFrom",
      "outputs": [],
      "stateMutability": "nonpayable",
      "type": "function"
    },
    {
      "inputs": [
        {
          "internalType": "address",
          "name": "operator",
          "type": "address"
        },
        {
          "internalType": "bool",
          "name": "approved",
          "type": "bool"
        }
      ],
      "name": "setApprovalForAll",
      "outputs": [],
      "stateMutability": "nonpayable",
      "type": "function"
    },
    {
      "inputs": [
        {
          "internalType": "bytes4",
          "name": "interfaceId",
          "type": "bytes4"
        }
      ],
      "name": "supportsInterface",
      "outputs": [
        {
          "internalType": "bool",
          "name": "",
          "type": "bool"
        }
      ],
      "stateMutability": "view",
      "type": "function"
    },
    {
      "inputs": [],
      "name": "symbol",
      "outputs": [
        {
          "internalType": "string",
          "name": "",
          "type": "string"
        }
      ],
      "stateMutability": "view",
      "type": "function"
    },
    {
      "inputs": [
        {
          "internalType": "uint256",
          "name": "tokenId",
          "type": "uint256"
        }
      ],
      "name": "tokenURI",
      "outputs": [
        {
          "internalType": "string",
          "name": "",
          "type": "string"
        }
      ],
      "stateMutability": "view",
      "type": "function"
    },
    {
      "inputs": [
        {
          "internalType": "address",
          "name": "from",
          "type": "address"
        },
        {
          "internalType": "address",
          "name": "to",
          "type": "address"
        },
        {
          "internalType": "uint256",
          "name": "tokenId",
          "type": "uint256"
        }
      ],
      "name": "transferFrom",
      "outputs": [],
      "stateMutability": "nonpayable",
      "type": "function"
    }
  ],
  "bytecode": "0x608060405260405180610160016040528061012f8152602001620050aa61012f913960089080519060200190620000389291906200132e565b506040518061030001604052806040518060400160405280600681526020017f416672616964000000000000000000000000000000000000000000000000000081525081526020016040518060400160405280600981526020017f416767726965766564000000000000000000000000000000000000000000000081525081526020016040518060400160405280600881526020017f416769746174656400000000000000000000000000000000000000000000000081525081526020016040518060400160405280600981526020017f416772656561626c65000000000000000000000000000000000000000000000081525081526020016040518060400160405280600681526020017f416d617a6564000000000000000000000000000000000000000000000000000081525081526020016040518060400160405280600381526020017f426164000000000000000000000000000000000000000000000000000000000081525081526020016040518060400160405280600881526020017f426572656176656400000000000000000000000000000000000000000000000081525081526020016040518060400160405280600a81526020017f426577696c64657265640000000000000000000000000000000000000000000081525081526020016040518060400160405280600581526020017f426f72656400000000000000000000000000000000000000000000000000000081525081526020016040518060400160405280600981526020017f427261766543616c6d000000000000000000000000000000000000000000000081525081526020016040518060400160405280600781526020017f4361726566756c0000000000000000000000000000000000000000000000000081525081526020016040518060400160405280600781526020017f4365727461696e0000000000000000000000000000000000000000000000000081525081526020016040518060400160405280600781526020017f436861726765640000000000000000000000000000000000000000000000000081525081526020016040518060400160405280600881526020017f436861726d696e6700000000000000000000000000000000000000000000000081525081526020016040518060400160405280600981526020017f44616e6765726f7573000000000000000000000000000000000000000000000081525081526020016040518060400160405280600881526020017f446566656174656400000000000000000000000000000000000000000000000081525081526020016040518060400160405280600781526020017f44656669616e740000000000000000000000000000000000000000000000000081525081526020016040518060400160405280600a81526020017f44656c6967687466756c0000000000000000000000000000000000000000000081525081526020016040518060400160405280600981526020017f446570726573736564000000000000000000000000000000000000000000000081525081526020016040518060400160405280600581526020017f456167657200000000000000000000000000000000000000000000000000000081525081526020016040518060400160405280600681526020017f456c61746564000000000000000000000000000000000000000000000000000081525081526020016040518060400160405280600b81526020017f456d62617272617373656400000000000000000000000000000000000000000081525081526020016040518060400160405280600a81526020017f456e6368616e74696e670000000000000000000000000000000000000000000081525081526020016040518060400160405280600b81526020017f456e636f75726167696e670000000000000000000000000000000000000000008152508152506009906018620005dd929190620013bf565b506040518061032001604052806040518060400160405280600381526020017f526564000000000000000000000000000000000000000000000000000000000081525081526020016040518060400160405280600481526020017f426c75650000000000000000000000000000000000000000000000000000000081525081526020016040518060400160405280600581526020017f477265656e00000000000000000000000000000000000000000000000000000081525081526020016040518060400160405280600481526020017f50696e6b0000000000000000000000000000000000000000000000000000000081525081526020016040518060400160405280600681526020017f4f72616e6765000000000000000000000000000000000000000000000000000081525081526020016040518060400160405280600681526020017f59656c6c6f77000000000000000000000000000000000000000000000000000081525081526020016040518060400160405280600581526020017f426c61636b00000000000000000000000000000000000000000000000000000081525081526020016040518060400160405280600581526020017f576869746500000000000000000000000000000000000000000000000000000081525081526020016040518060400160405280600681526020017f507572706c65000000000000000000000000000000000000000000000000000081525081526020016040518060400160405280600481526020017f4379616e0000000000000000000000000000000000000000000000000000000081525081526020016040518060400160405280600781526020017f4d6167656e74610000000000000000000000000000000000000000000000000081525081526020016040518060400160405280600581526020017f42726f776e00000000000000000000000000000000000000000000000000000081525081526020016040518060400160405280600681526020017f56696f6c6574000000000000000000000000000000000000000000000000000081525081526020016040518060400160405280600681526020017f436f70706572000000000000000000000000000000000000000000000000000081525081526020016040518060400160405280600481526020017f477265790000000000000000000000000000000000000000000000000000000081525081526020016040518060400160405280600581526020017f437265616d00000000000000000000000000000000000000000000000000000081525081526020016040518060400160405280600481526020017f4c696d650000000000000000000000000000000000000000000000000000000081525081526020016040518060400160405280600581526020017f426569676500000000000000000000000000000000000000000000000000000081525081526020016040518060400160405280600581526020017f416d62657200000000000000000000000000000000000000000000000000000081525081526020016040518060400160405280600681526020017f416c6d6f6e64000000000000000000000000000000000000000000000000000081525081526020016040518060400160405280600481526020017f417175610000000000000000000000000000000000000000000000000000000081525081526020016040518060400160405280600881526020017f4567677368656c6c00000000000000000000000000000000000000000000000081525081526020016040518060400160405280600581526020017f466c616d6500000000000000000000000000000000000000000000000000000081525081526020016040518060400160405280600481526020017f466c61780000000000000000000000000000000000000000000000000000000081525081526020016040518060400160405280600581526020017f45626f6e79000000000000000000000000000000000000000000000000000000815250815250600a90601962000bbd92919062001426565b506040518061030001604052806040518060400160405280600781526020017f42756666616c6f0000000000000000000000000000000000000000000000000081525081526020016040518060400160405280600681526020017f526162626974000000000000000000000000000000000000000000000000000081525081526020016040518060400160405280600381526020017f446f67000000000000000000000000000000000000000000000000000000000081525081526020016040518060400160405280600681526020017f4261626f6f6e000000000000000000000000000000000000000000000000000081525081526020016040518060400160405280600381526020017f426174000000000000000000000000000000000000000000000000000000000081525081526020016040518060400160405280600381526020017f466f78000000000000000000000000000000000000000000000000000000000081525081526020016040518060400160405280600781526020017f436865657461680000000000000000000000000000000000000000000000000081525081526020016040518060400160405280600a81526020017f4368696d70616e7a65650000000000000000000000000000000000000000000081525081526020016040518060400160405280600681526020017f4d6f6e6b6579000000000000000000000000000000000000000000000000000081525081526020016040518060400160405280600881526020017f4d6f6e676f6f736500000000000000000000000000000000000000000000000081525081526020016040518060400160405280600881526020017f456c657068616e7400000000000000000000000000000000000000000000000081525081526020016040518060400160405280600481526020017f576f6c660000000000000000000000000000000000000000000000000000000081525081526020016040518060400160405280600581526020017f5a6562726100000000000000000000000000000000000000000000000000000081525081526020016040518060400160405280600881526020017f4865646765686f6700000000000000000000000000000000000000000000000081525081526020016040518060400160405280600481526020017f4c696f6e0000000000000000000000000000000000000000000000000000000081525081526020016040518060400160405280600481526020017f426561720000000000000000000000000000000000000000000000000000000081525081526020016040518060400160405280600781526020017f476f72696c6c610000000000000000000000000000000000000000000000000081525081526020016040518060400160405280600781526020017f4f7374726963680000000000000000000000000000000000000000000000000081525081526020016040518060400160405280600581526020017f5268696e6f00000000000000000000000000000000000000000000000000000081525081526020016040518060400160405280600781526020017f57617274686f670000000000000000000000000000000000000000000000000081525081526020016040518060400160405280600781526020017f476972616666650000000000000000000000000000000000000000000000000081525081526020016040518060400160405280600581526020017f4879656e6100000000000000000000000000000000000000000000000000000081525081526020016040518060400160405280600481526020017f446565720000000000000000000000000000000000000000000000000000000081525081526020016040518060400160405280600981526020017f4d7573654d6f7573650000000000000000000000000000000000000000000000815250815250600b90601862001162929190620013bf565b503480156200117057600080fd5b506040518060400160405280600c81526020017f416e6f6e796d6f75734e465400000000000000000000000000000000000000008152506040518060400160405280600381526020017f57414100000000000000000000000000000000000000000000000000000000008152508160009080519060200190620011f59291906200132e565b5080600190805190602001906200120e9291906200132e565b5050506200125c6040518060400160405280601e81526020017f54686973206973206d79204e465420636f6e74726163742e20576f61682100008152506200126260201b620012f71760201c565b62001647565b62001302816040516024016200127991906200155b565b6040516020818303038152906040527f41304fac000000000000000000000000000000000000000000000000000000007bffffffffffffffffffffffffffffffffffffffffffffffffffffffff19166020820180517bffffffffffffffffffffffffffffffffffffffffffffffffffffffff83818316178352505050506200130560201b60201c565b50565b60008151905060006a636f6e736f6c652e6c6f679050602083016000808483855afa5050505050565b8280546200133c90620015d1565b90600052602060002090601f016020900481019282620013605760008555620013ac565b82601f106200137b57805160ff1916838001178555620013ac565b82800160010185558215620013ac579182015b82811115620013ab5782518255916020019190600101906200138e565b5b509050620013bb91906200148d565b5090565b82805482825590600052602060002090810192821562001413579160200282015b8281111562001412578251829080519060200190620014019291906200132e565b5091602001919060010190620013e0565b5b509050620014229190620014ac565b5090565b8280548282559060005260206000209081019282156200147a579160200282015b8281111562001479578251829080519060200190620014689291906200132e565b509160200191906001019062001447565b5b509050620014899190620014ac565b5090565b5b80821115620014a85760008160009055506001016200148e565b5090565b5b80821115620014d05760008181620014c69190620014d4565b50600101620014ad565b5090565b508054620014e290620015d1565b6000825580601f10620014f6575062001517565b601f0160209004906000526020600020908101906200151691906200148d565b5b50565b600062001527826200157f565b6200153381856200158a565b9350620015458185602086016200159b565b620015508162001636565b840191505092915050565b600060208201905081810360008301526200157781846200151a565b905092915050565b600081519050919050565b600082825260208201905092915050565b60005b83811015620015bb5780820151818401526020810190506200159e565b83811115620015cb576000848401525b50505050565b60006002820490506001821680620015ea57607f821691505b6020821081141562001601576200160062001607565b5b50919050565b7f4e487b7100000000000000000000000000000000000000000000000000000000600052602260045260246000fd5b6000601f19601f8301169050919050565b613a5380620016576000396000f3fe6080604052600436106100fe5760003560e01c80636352211e11610095578063b187301f11610064578063b187301f14610338578063b88d4fde14610375578063c575757a1461039e578063c87b56dd146103db578063e985e9c514610418576100fe565b80636352211e1461026a57806370a08231146102a757806395d89b41146102e4578063a22cb4651461030f576100fe565b80631249c58b116100d15780631249c58b146101d157806323b872dd146101db5780632de38d681461020457806342842e0e14610241576100fe565b806301ffc9a71461010357806306fdde0314610140578063081812fc1461016b578063095ea7b3146101a8575b600080fd5b34801561010f57600080fd5b5061012a6004803603810190610125919061258a565b610455565b6040516101379190612c6b565b60405180910390f35b34801561014c57600080fd5b50610155610537565b6040516101629190612c86565b60405180910390f35b34801561017757600080fd5b50610192600480360381019061018d91906125dc565b6105c9565b60405161019f9190612c04565b60405180910390f35b3480156101b457600080fd5b506101cf60048036038101906101ca919061254e565b61064e565b005b6101d9610766565b005b3480156101e757600080fd5b5061020260048036038101906101fd9190612448565b610958565b005b34801561021057600080fd5b5061022b600480360381019061022691906125dc565b6109b8565b6040516102389190612c86565b60405180910390f35b34801561024d57600080fd5b5061026860048036038101906102639190612448565b610ad6565b005b34801561027657600080fd5b50610291600480360381019061028c91906125dc565b610af6565b60405161029e9190612c04565b60405180910390f35b3480156102b357600080fd5b506102ce60048036038101906102c991906123e3565b610ba8565b6040516102db9190612ee6565b60405180910390f35b3480156102f057600080fd5b506102f9610c60565b6040516103069190612c86565b60405180910390f35b34801561031b57600080fd5b5061033660048036038101906103319190612512565b610cf2565b005b34801561034457600080fd5b5061035f600480360381019061035a91906125dc565b610e73565b60405161036c9190612c86565b60405180910390f35b34801561038157600080fd5b5061039c60048036038101906103979190612497565b610f91565b005b3480156103aa57600080fd5b506103c560048036038101906103c091906125dc565b610ff3565b6040516103d29190612c86565b60405180910390f35b3480156103e757600080fd5b5061040260048036038101906103fd91906125dc565b611111565b60405161040f9190612c86565b60405180910390f35b34801561042457600080fd5b5061043f600480360381019061043a919061240c565b611263565b60405161044c9190612c6b565b60405180910390f35b60007f80ac58cd000000000000000000000000000000000000000000000000000000007bffffffffffffffffffffffffffffffffffffffffffffffffffffffff1916827bffffffffffffffffffffffffffffffffffffffffffffffffffffffff1916148061052057507f5b5e139f000000000000000000000000000000000000000000000000000000007bffffffffffffffffffffffffffffffffffffffffffffffffffffffff1916827bffffffffffffffffffffffffffffffffffffffffffffffffffffffff1916145b80610530575061052f82611390565b5b9050919050565b6060600080546105469061317a565b80601f01602080910402602001604051908101604052809291908181526020018280546105729061317a565b80156105bf5780601f10610594576101008083540402835291602001916105bf565b820191906000526020600020905b8154815290600101906020018083116105a257829003601f168201915b5050505050905090565b60006105d4826113fa565b610613576040517f08c379a000000000000000000000000000000000000000000000000000000000815260040161060a90612e46565b60405180910390fd5b6004600083815260200190815260200160002060009054906101000a900473ffffffffffffffffffffffffffffffffffffffff169050919050565b600061065982610af6565b90508073ffffffffffffffffffffffffffffffffffffffff168373ffffffffffffffffffffffffffffffffffffffff1614156106ca576040517f08c379a00000000000000000000000000000000000000000000000000000000081526004016106c190612ea6565b60405180910390fd5b8073ffffffffffffffffffffffffffffffffffffffff166106e9611466565b73ffffffffffffffffffffffffffffffffffffffff161480610718575061071781610712611466565b611263565b5b610757576040517f08c379a000000000000000000000000000000000000000000000000000000000815260040161074e90612d86565b60405180910390fd5b610761838361146e565b505050565b60006107726007611527565b9050600061077f826109b8565b9050600061078c83610e73565b9050600061079984610ff3565b905060008383836040516020016107b293929190612ad7565b604051602081830303815290604052905060006008826040516020016107d9929190612b08565b6040516020818303038152906040529050600061081e836107f984611535565b60405160200161080a929190612b7b565b604051602081830303815290604052611535565b90506000816040516020016108339190612be2565b60405160208183030381529060405290506108826040518060400160405280601581526020017f0a2d2d2d2d2d2d2d2d2d2d2d2d2d2d2d2d2d2d2d2d00000000000000000000008152506112f7565b61088b816112f7565b6108c96040518060400160405280601581526020017f2d2d2d2d2d2d2d2d2d2d2d2d2d2d2d2d2d2d2d2d0a00000000000000000000008152506112f7565b6108d333896116f3565b6108dd8882611711565b6109006040518060600160405280602581526020016139b9602591398933611785565b61090a6007611824565b873373ffffffffffffffffffffffffffffffffffffffff167f1c05098ed1ff38e6238d2b1b04b2c7977d4c94ce651bda6473f9dba8dbf01da060405160405180910390a35050505050505050565b610969610963611466565b8261183a565b6109a8576040517f08c379a000000000000000000000000000000000000000000000000000000000815260040161099f90612ec6565b60405180910390fd5b6109b3838383611918565b505050565b606060006109ec6109c884611b74565b6040516020016109d89190612bc0565b604051602081830303815290604052611d21565b9050600980549050816109ff9190613226565b905060098181548110610a3b577f4e487b7100000000000000000000000000000000000000000000000000000000600052603260045260246000fd5b906000526020600020018054610a509061317a565b80601f0160208091040260200160405190810160405280929190818152602001828054610a7c9061317a565b8015610ac95780601f10610a9e57610100808354040283529160200191610ac9565b820191906000526020600020905b815481529060010190602001808311610aac57829003601f168201915b5050505050915050919050565b610af183838360405180602001604052806000815250610f91565b505050565b6000806002600084815260200190815260200160002060009054906101000a900473ffffffffffffffffffffffffffffffffffffffff169050600073ffffffffffffffffffffffffffffffffffffffff168173ffffffffffffffffffffffffffffffffffffffff161415610b9f576040517f08c379a0000000000000000000000000000000000000000000000000000000008152600401610b9690612dc6565b60405180910390fd5b80915050919050565b60008073ffffffffffffffffffffffffffffffffffffffff168273ffffffffffffffffffffffffffffffffffffffff161415610c19576040517f08c379a0000000000000000000000000000000000000000000000000000000008152600401610c1090612da6565b60405180910390fd5b600360008373ffffffffffffffffffffffffffffffffffffffff1673ffffffffffffffffffffffffffffffffffffffff168152602001908152602001600020549050919050565b606060018054610c6f9061317a565b80601f0160208091040260200160405190810160405280929190818152602001828054610c9b9061317a565b8015610ce85780601f10610cbd57610100808354040283529160200191610ce8565b820191906000526020600020905b815481529060010190602001808311610ccb57829003601f168201915b5050505050905090565b610cfa611466565b73ffffffffffffffffffffffffffffffffffffffff168273ffffffffffffffffffffffffffffffffffffffff161415610d68576040517f08c379a0000000000000000000000000000000000000000000000000000000008152600401610d5f90612d46565b60405180910390fd5b8060056000610d75611466565b73ffffffffffffffffffffffffffffffffffffffff1673ffffffffffffffffffffffffffffffffffffffff16815260200190815260200160002060008473ffffffffffffffffffffffffffffffffffffffff1673ffffffffffffffffffffffffffffffffffffffff16815260200190815260200160002060006101000a81548160ff0219169083151502179055508173ffffffffffffffffffffffffffffffffffffffff16610e22611466565b73ffffffffffffffffffffffffffffffffffffffff167f17307eab39ab6107e8899845ad3d59bd9653f200f220920489ca2b5937696c3183604051610e679190612c6b565b60405180910390a35050565b60606000610ea7610e8384611b74565b604051602001610e939190612b59565b604051602081830303815290604052611d21565b9050600a8054905081610eba9190613226565b9050600a8181548110610ef6577f4e487b7100000000000000000000000000000000000000000000000000000000600052603260045260246000fd5b906000526020600020018054610f0b9061317a565b80601f0160208091040260200160405190810160405280929190818152602001828054610f379061317a565b8015610f845780601f10610f5957610100808354040283529160200191610f84565b820191906000526020600020905b815481529060010190602001808311610f6757829003601f168201915b5050505050915050919050565b610fa2610f9c611466565b8361183a565b610fe1576040517f08c379a0000000000000000000000000000000000000000000000000000000008152600401610fd890612ec6565b60405180910390fd5b610fed84848484611d54565b50505050565b6060600061102761100384611b74565b6040516020016110139190612b37565b604051602081830303815290604052611d21565b9050600b805490508161103a9190613226565b9050600b8181548110611076577f4e487b7100000000000000000000000000000000000000000000000000000000600052603260045260246000fd5b90600052602060002001805461108b9061317a565b80601f01602080910402602001604051908101604052809291908181526020018280546110b79061317a565b80156111045780601f106110d957610100808354040283529160200191611104565b820191906000526020600020905b8154815290600101906020018083116110e757829003601f168201915b5050505050915050919050565b606061111c826113fa565b61115b576040517f08c379a000000000000000000000000000000000000000000000000000000000815260040161115290612e26565b60405180910390fd5b600060066000848152602001908152602001600020805461117b9061317a565b80601f01602080910402602001604051908101604052809291908181526020018280546111a79061317a565b80156111f45780601f106111c9576101008083540402835291602001916111f4565b820191906000526020600020905b8154815290600101906020018083116111d757829003601f168201915b505050505090506000611205611db0565b905060008151141561121b57819250505061125e565b600082511115611250578082604051602001611238929190612ab3565b6040516020818303038152906040529250505061125e565b61125984611dc7565b925050505b919050565b6000600560008473ffffffffffffffffffffffffffffffffffffffff1673ffffffffffffffffffffffffffffffffffffffff16815260200190815260200160002060008373ffffffffffffffffffffffffffffffffffffffff1673ffffffffffffffffffffffffffffffffffffffff16815260200190815260200160002060009054906101000a900460ff16905092915050565b61138d8160405160240161130b9190612c86565b6040516020818303038152906040527f41304fac000000000000000000000000000000000000000000000000000000007bffffffffffffffffffffffffffffffffffffffffffffffffffffffff19166020820180517bffffffffffffffffffffffffffffffffffffffffffffffffffffffff8381831617835250505050611e6e565b50565b60007f01ffc9a7000000000000000000000000000000000000000000000000000000007bffffffffffffffffffffffffffffffffffffffffffffffffffffffff1916827bffffffffffffffffffffffffffffffffffffffffffffffffffffffff1916149050919050565b60008073ffffffffffffffffffffffffffffffffffffffff166002600084815260200190815260200160002060009054906101000a900473ffffffffffffffffffffffffffffffffffffffff1673ffffffffffffffffffffffffffffffffffffffff1614159050919050565b600033905090565b816004600083815260200190815260200160002060006101000a81548173ffffffffffffffffffffffffffffffffffffffff021916908373ffffffffffffffffffffffffffffffffffffffff160217905550808273ffffffffffffffffffffffffffffffffffffffff166114e183610af6565b73ffffffffffffffffffffffffffffffffffffffff167f8c5be1e5ebec7d5bd14f71427d1e84f3dd0314c0f7b2291e5b200ac8c7c3b92560405160405180910390a45050565b600081600001549050919050565b6060600082519050600081141561155e57604051806020016040528060008152509150506116ee565b6000600360028361156f9190612faf565b6115799190613005565b60046115859190613036565b905060006020826115969190612faf565b67ffffffffffffffff8111156115d5577f4e487b7100000000000000000000000000000000000000000000000000000000600052604160045260246000fd5b6040519080825280601f01601f1916602001820160405280156116075781602001600182028036833780820191505090505b50905060006040518060600160405280604081526020016139de604091399050600181016020830160005b868110156116ab5760038101905062ffffff818a015116603f8160121c168401518060081b905060ff603f83600c1c1686015116810190508060081b905060ff603f8360061c1686015116810190508060081b905060ff603f831686015116810190508060e01b90508084526004840193505050611632565b5060038606600181146116c557600281146116d5576116e0565b613d3d60f01b60028303526116e0565b603d60f81b60018303525b508484525050819450505050505b919050565b61170d828260405180602001604052806000815250611e97565b5050565b61171a826113fa565b611759576040517f08c379a000000000000000000000000000000000000000000000000000000000815260040161175090612de6565b60405180910390fd5b8060066000848152602001908152602001600020908051906020019061178092919061226f565b505050565b61181f83838360405160240161179d93929190612ca8565b6040516020818303038152906040527fe3849f79000000000000000000000000000000000000000000000000000000007bffffffffffffffffffffffffffffffffffffffffffffffffffffffff19166020820180517bffffffffffffffffffffffffffffffffffffffffffffffffffffffff8381831617835250505050611e6e565b505050565b6001816000016000828254019250508190555050565b6000611845826113fa565b611884576040517f08c379a000000000000000000000000000000000000000000000000000000000815260040161187b90612d66565b60405180910390fd5b600061188f83610af6565b90508073ffffffffffffffffffffffffffffffffffffffff168473ffffffffffffffffffffffffffffffffffffffff1614806118fe57508373ffffffffffffffffffffffffffffffffffffffff166118e6846105c9565b73ffffffffffffffffffffffffffffffffffffffff16145b8061190f575061190e8185611263565b5b91505092915050565b8273ffffffffffffffffffffffffffffffffffffffff1661193882610af6565b73ffffffffffffffffffffffffffffffffffffffff161461198e576040517f08c379a000000000000000000000000000000000000000000000000000000000815260040161198590612e66565b60405180910390fd5b600073ffffffffffffffffffffffffffffffffffffffff168273ffffffffffffffffffffffffffffffffffffffff1614156119fe576040517f08c379a00000000000000000000000000000000000000000000000000000000081526004016119f590612d26565b60405180910390fd5b611a09838383611ef2565b611a1460008261146e565b6001600360008573ffffffffffffffffffffffffffffffffffffffff1673ffffffffffffffffffffffffffffffffffffffff1681526020019081526020016000206000828254611a649190613090565b925050819055506001600360008473ffffffffffffffffffffffffffffffffffffffff1673ffffffffffffffffffffffffffffffffffffffff1681526020019081526020016000206000828254611abb9190612faf565b92505081905550816002600083815260200190815260200160002060006101000a81548173ffffffffffffffffffffffffffffffffffffffff021916908373ffffffffffffffffffffffffffffffffffffffff160217905550808273ffffffffffffffffffffffffffffffffffffffff168473ffffffffffffffffffffffffffffffffffffffff167fddf252ad1be2c89b69c2b068fc378daa952ba7f163c4a11628f55a4df523b3ef60405160405180910390a4505050565b60606000821415611bbc576040518060400160405280600181526020017f30000000000000000000000000000000000000000000000000000000000000008152509050611d1c565b600082905060005b60008214611bee578080611bd7906131dd565b915050600a82611be79190613005565b9150611bc4565b60008167ffffffffffffffff811115611c30577f4e487b7100000000000000000000000000000000000000000000000000000000600052604160045260246000fd5b6040519080825280601f01601f191660200182016040528015611c625781602001600182028036833780820191505090505b5090505b60008514611d1557600182611c7b9190613090565b9150600a85611c8a9190613226565b6030611c969190612faf565b60f81b818381518110611cd2577f4e487b7100000000000000000000000000000000000000000000000000000000600052603260045260246000fd5b60200101907effffffffffffffffffffffffffffffffffffffffffffffffffffffffffffff1916908160001a905350600a85611d0e9190613005565b9450611c66565b8093505050505b919050565b600081604051602001611d349190612a9c565b6040516020818303038152906040528051906020012060001c9050919050565b611d5f848484611918565b611d6b84848484611ef7565b611daa576040517f08c379a0000000000000000000000000000000000000000000000000000000008152600401611da190612ce6565b60405180910390fd5b50505050565b606060405180602001604052806000815250905090565b6060611dd2826113fa565b611e11576040517f08c379a0000000000000000000000000000000000000000000000000000000008152600401611e0890612e86565b60405180910390fd5b6000611e1b611db0565b90506000815111611e3b5760405180602001604052806000815250611e66565b80611e4584611b74565b604051602001611e56929190612ab3565b6040516020818303038152906040525b915050919050565b60008151905060006a636f6e736f6c652e6c6f679050602083016000808483855afa5050505050565b611ea1838361208e565b611eae6000848484611ef7565b611eed576040517f08c379a0000000000000000000000000000000000000000000000000000000008152600401611ee490612ce6565b60405180910390fd5b505050565b505050565b6000611f188473ffffffffffffffffffffffffffffffffffffffff1661225c565b15612081578373ffffffffffffffffffffffffffffffffffffffff1663150b7a02611f41611466565b8786866040518563ffffffff1660e01b8152600401611f639493929190612c1f565b602060405180830381600087803b158015611f7d57600080fd5b505af1925050508015611fae57506040513d601f19601f82011682018060405250810190611fab91906125b3565b60015b612031573d8060008114611fde576040519150601f19603f3d011682016040523d82523d6000602084013e611fe3565b606091505b50600081511415612029576040517f08c379a000000000000000000000000000000000000000000000000000000000815260040161202090612ce6565b60405180910390fd5b805181602001fd5b63150b7a0260e01b7bffffffffffffffffffffffffffffffffffffffffffffffffffffffff1916817bffffffffffffffffffffffffffffffffffffffffffffffffffffffff191614915050612086565b600190505b949350505050565b600073ffffffffffffffffffffffffffffffffffffffff168273ffffffffffffffffffffffffffffffffffffffff1614156120fe576040517f08c379a00000000000000000000000000000000000000000000000000000000081526004016120f590612e06565b60405180910390fd5b612107816113fa565b15612147576040517f08c379a000000000000000000000000000000000000000000000000000000000815260040161213e90612d06565b60405180910390fd5b61215360008383611ef2565b6001600360008473ffffffffffffffffffffffffffffffffffffffff1673ffffffffffffffffffffffffffffffffffffffff16815260200190815260200160002060008282546121a39190612faf565b92505081905550816002600083815260200190815260200160002060006101000a81548173ffffffffffffffffffffffffffffffffffffffff021916908373ffffffffffffffffffffffffffffffffffffffff160217905550808273ffffffffffffffffffffffffffffffffffffffff16600073ffffffffffffffffffffffffffffffffffffffff167fddf252ad1be2c89b69c2b068fc378daa952ba7f163c4a11628f55a4df523b3ef60405160405180910390a45050565b600080823b905060008111915050919050565b82805461227b9061317a565b90600052602060002090601f01602090048101928261229d57600085556122e4565b82601f106122b657805160ff19168380011785556122e4565b828001600101855582156122e4579182015b828111156122e35782518255916020019190600101906122c8565b5b5090506122f191906122f5565b5090565b5b8082111561230e5760008160009055506001016122f6565b5090565b600061232561232084612f26565b612f01565b90508281526020810184848401111561233d57600080fd5b612348848285613138565b509392505050565b60008135905061235f8161395c565b92915050565b60008135905061237481613973565b92915050565b6000813590506123898161398a565b92915050565b60008151905061239e8161398a565b92915050565b600082601f8301126123b557600080fd5b81356123c5848260208601612312565b91505092915050565b6000813590506123dd816139a1565b92915050565b6000602082840312156123f557600080fd5b600061240384828501612350565b91505092915050565b6000806040838503121561241f57600080fd5b600061242d85828601612350565b925050602061243e85828601612350565b9150509250929050565b60008060006060848603121561245d57600080fd5b600061246b86828701612350565b935050602061247c86828701612350565b925050604061248d868287016123ce565b9150509250925092565b600080600080608085870312156124ad57600080fd5b60006124bb87828801612350565b94505060206124cc87828801612350565b93505060406124dd878288016123ce565b925050606085013567ffffffffffffffff8111156124fa57600080fd5b612506878288016123a4565b91505092959194509250565b6000806040838503121561252557600080fd5b600061253385828601612350565b925050602061254485828601612365565b9150509250929050565b6000806040838503121561256157600080fd5b600061256f85828601612350565b9250506020612580858286016123ce565b9150509250929050565b60006020828403121561259c57600080fd5b60006125aa8482850161237a565b91505092915050565b6000602082840312156125c557600080fd5b60006125d38482850161238f565b91505092915050565b6000602082840312156125ee57600080fd5b60006125fc848285016123ce565b91505092915050565b61260e816130c4565b82525050565b61261d816130d6565b82525050565b600061262e82612f6c565b6126388185612f82565b9350612648818560208601613147565b61265181613313565b840191505092915050565b600061266782612f77565b6126718185612f93565b9350612681818560208601613147565b61268a81613313565b840191505092915050565b60006126a082612f77565b6126aa8185612fa4565b93506126ba818560208601613147565b80840191505092915050565b600081546126d38161317a565b6126dd8186612fa4565b945060018216600081146126f857600181146127095761273c565b60ff1983168652818601935061273c565b61271285612f57565b60005b8381101561273457815481890152600182019150602081019050612715565b838801955050505b50505092915050565b6000612752603283612f93565b915061275d82613324565b604082019050919050565b6000612775601c83612f93565b915061278082613373565b602082019050919050565b6000612798600a83612fa4565b91506127a38261339c565b600a82019050919050565b60006127bb607a83612fa4565b91506127c6826133c5565b607a82019050919050565b60006127de602483612f93565b91506127e982613460565b604082019050919050565b6000612801601983612f93565b915061280c826134af565b602082019050919050565b6000612824600b83612fa4565b915061282f826134d8565b600b82019050919050565b6000612847602c83612f93565b915061285282613501565b604082019050919050565b600061286a600d83612fa4565b915061287582613550565b600d82019050919050565b600061288d603883612f93565b915061289882613579565b604082019050919050565b60006128b0602a83612f93565b91506128bb826135c8565b604082019050919050565b60006128d3602983612f93565b91506128de82613617565b604082019050919050565b60006128f6602e83612f93565b915061290182613666565b604082019050919050565b6000612919600283612fa4565b9150612924826136b5565b600282019050919050565b600061293c602083612f93565b9150612947826136de565b602082019050919050565b600061295f603183612f93565b915061296a82613707565b604082019050919050565b6000612982602c83612f93565b915061298d82613756565b604082019050919050565b60006129a5602983612f93565b91506129b0826137a5565b604082019050919050565b60006129c8602f83612f93565b91506129d3826137f4565b604082019050919050565b60006129eb600a83612fa4565b91506129f682613843565b600a82019050919050565b6000612a0e602183612f93565b9150612a198261386c565b604082019050919050565b6000612a31600a83612fa4565b9150612a3c826138bb565b600a82019050919050565b6000612a54601d83612fa4565b9150612a5f826138e4565b601d82019050919050565b6000612a77603183612f93565b9150612a828261390d565b604082019050919050565b612a968161312e565b82525050565b6000612aa88284612695565b915081905092915050565b6000612abf8285612695565b9150612acb8284612695565b91508190509392505050565b6000612ae38286612695565b9150612aef8285612695565b9150612afb8284612695565b9150819050949350505050565b6000612b1482856126c6565b9150612b208284612695565b9150612b2b8261285d565b91508190509392505050565b6000612b428261278b565b9150612b4e8284612695565b915081905092915050565b6000612b6482612817565b9150612b708284612695565b915081905092915050565b6000612b86826129de565b9150612b928285612695565b9150612b9d826127ae565b9150612ba98284612695565b9150612bb48261290c565b91508190509392505050565b6000612bcb82612a24565b9150612bd78284612695565b915081905092915050565b6000612bed82612a47565b9150612bf98284612695565b915081905092915050565b6000602082019050612c196000830184612605565b92915050565b6000608082019050612c346000830187612605565b612c416020830186612605565b612c4e6040830185612a8d565b8181036060830152612c608184612623565b905095945050505050565b6000602082019050612c806000830184612614565b92915050565b60006020820190508181036000830152612ca0818461265c565b905092915050565b60006060820190508181036000830152612cc2818661265c565b9050612cd16020830185612a8d565b612cde6040830184612605565b949350505050565b60006020820190508181036000830152612cff81612745565b9050919050565b60006020820190508181036000830152612d1f81612768565b9050919050565b60006020820190508181036000830152612d3f816127d1565b9050919050565b60006020820190508181036000830152612d5f816127f4565b9050919050565b60006020820190508181036000830152612d7f8161283a565b9050919050565b60006020820190508181036000830152612d9f81612880565b9050919050565b60006020820190508181036000830152612dbf816128a3565b9050919050565b60006020820190508181036000830152612ddf816128c6565b9050919050565b60006020820190508181036000830152612dff816128e9565b9050919050565b60006020820190508181036000830152612e1f8161292f565b9050919050565b60006020820190508181036000830152612e3f81612952565b9050919050565b60006020820190508181036000830152612e5f81612975565b9050919050565b60006020820190508181036000830152612e7f81612998565b9050919050565b60006020820190508181036000830152612e9f816129bb565b9050919050565b60006020820190508181036000830152612ebf81612a01565b9050919050565b60006020820190508181036000830152612edf81612a6a565b9050919050565b6000602082019050612efb6000830184612a8d565b92915050565b6000612f0b612f1c565b9050612f1782826131ac565b919050565b6000604051905090565b600067ffffffffffffffff821115612f4157612f406132e4565b5b612f4a82613313565b9050602081019050919050565b60008190508160005260206000209050919050565b600081519050919050565b600081519050919050565b600082825260208201905092915050565b600082825260208201905092915050565b600081905092915050565b6000612fba8261312e565b9150612fc58361312e565b9250827fffffffffffffffffffffffffffffffffffffffffffffffffffffffffffffffff03821115612ffa57612ff9613257565b5b828201905092915050565b60006130108261312e565b915061301b8361312e565b92508261302b5761302a613286565b5b828204905092915050565b60006130418261312e565b915061304c8361312e565b9250817fffffffffffffffffffffffffffffffffffffffffffffffffffffffffffffffff048311821515161561308557613084613257565b5b828202905092915050565b600061309b8261312e565b91506130a68361312e565b9250828210156130b9576130b8613257565b5b828203905092915050565b60006130cf8261310e565b9050919050565b60008115159050919050565b60007fffffffff0000000000000000000000000000000000000000000000000000000082169050919050565b600073ffffffffffffffffffffffffffffffffffffffff82169050919050565b6000819050919050565b82818337600083830152505050565b60005b8381101561316557808201518184015260208101905061314a565b83811115613174576000848401525b50505050565b6000600282049050600182168061319257607f821691505b602082108114156131a6576131a56132b5565b5b50919050565b6131b582613313565b810181811067ffffffffffffffff821117156131d4576131d36132e4565b5b80604052505050565b60006131e88261312e565b91507fffffffffffffffffffffffffffffffffffffffffffffffffffffffffffffffff82141561321b5761321a613257565b5b600182019050919050565b60006132318261312e565b915061323c8361312e565b92508261324c5761324b613286565b5b828206905092915050565b7f4e487b7100000000000000000000000000000000000000000000000000000000600052601160045260246000fd5b7f4e487b7100000000000000000000000000000000000000000000000000000000600052601260045260246000fd5b7f4e487b7100000000000000000000000000000000000000000000000000000000600052602260045260246000fd5b7f4e487b7100000000000000000000000000000000000000000000000000000000600052604160045260246000fd5b6000601f19601f8301169050919050565b7f4552433732313a207472616e7366657220746f206e6f6e20455243373231526560008201527f63656976657220696d706c656d656e7465720000000000000000000000000000602082015250565b7f4552433732313a20746f6b656e20616c7265616479206d696e74656400000000600082015250565b7f54484952445f574f524400000000000000000000000000000000000000000000600082015250565b7f222c20226465736372697074696f6e223a20224120686967686c79206163636c60008201527f61696d656420636f6c6c656374696f6e206f6620636f6c6f7266756c20616e6460208201527f20656d6974696f6e616c20616e696d616c732e222c2022696d616765223a202260408201527f646174613a696d6167652f7376672b786d6c3b6261736536342c000000000000606082015250565b7f4552433732313a207472616e7366657220746f20746865207a65726f2061646460008201527f7265737300000000000000000000000000000000000000000000000000000000602082015250565b7f4552433732313a20617070726f766520746f2063616c6c657200000000000000600082015250565b7f5345434f4e445f574f5244000000000000000000000000000000000000000000600082015250565b7f4552433732313a206f70657261746f7220717565727920666f72206e6f6e657860008201527f697374656e7420746f6b656e0000000000000000000000000000000000000000602082015250565b7f3c2f746578743e3c2f7376673e00000000000000000000000000000000000000600082015250565b7f4552433732313a20617070726f76652063616c6c6572206973206e6f74206f7760008201527f6e6572206e6f7220617070726f76656420666f7220616c6c0000000000000000602082015250565b7f4552433732313a2062616c616e636520717565727920666f7220746865207a6560008201527f726f206164647265737300000000000000000000000000000000000000000000602082015250565b7f4552433732313a206f776e657220717565727920666f72206e6f6e657869737460008201527f656e7420746f6b656e0000000000000000000000000000000000000000000000602082015250565b7f45524337323155524953746f726167653a2055524920736574206f66206e6f6e60008201527f6578697374656e7420746f6b656e000000000000000000000000000000000000602082015250565b7f227d000000000000000000000000000000000000000000000000000000000000600082015250565b7f4552433732313a206d696e7420746f20746865207a65726f2061646472657373600082015250565b7f45524337323155524953746f726167653a2055524920717565727920666f722060008201527f6e6f6e6578697374656e7420746f6b656e000000000000000000000000000000602082015250565b7f4552433732313a20617070726f76656420717565727920666f72206e6f6e657860008201527f697374656e7420746f6b656e0000000000000000000000000000000000000000602082015250565b7f4552433732313a207472616e73666572206f6620746f6b656e2074686174206960008201527f73206e6f74206f776e0000000000000000000000000000000000000000000000602082015250565b7f4552433732314d657461646174613a2055524920717565727920666f72206e6f60008201527f6e6578697374656e7420746f6b656e0000000000000000000000000000000000602082015250565b7f7b226e616d65223a202200000000000000000000000000000000000000000000600082015250565b7f4552433732313a20617070726f76616c20746f2063757272656e74206f776e6560008201527f7200000000000000000000000000000000000000000000000000000000000000602082015250565b7f46495253545f574f524400000000000000000000000000000000000000000000600082015250565b7f646174613a6170706c69636174696f6e2f6a736f6e3b6261736536342c000000600082015250565b7f4552433732313a207472616e736665722063616c6c6572206973206e6f74206f60008201527f776e6572206e6f7220617070726f766564000000000000000000000000000000602082015250565b613965816130c4565b811461397057600080fd5b50565b61397c816130d6565b811461398757600080fd5b50565b613993816130e2565b811461399e57600080fd5b50565b6139aa8161312e565b81146139b557600080fd5b5056fe416e204e465420772f20494420257320686173206265656e206d696e74656420746f2025734142434445464748494a4b4c4d4e4f505152535455565758595a6162636465666768696a6b6c6d6e6f707172737475767778797a303132333435363738392b2fa2646970667358221220ee6d197479dadeedbb789bcf1ef3b7fbdc29162159eacf46a2e1af53c985646064736f6c634300080400333c73766720786d6c6e733d27687474703a2f2f7777772e77332e6f72672f323030302f73766727207072657365727665417370656374526174696f3d27784d696e594d696e206d656574272076696577426f783d273020302033353020333530273e3c7374796c653e2e62617365207b2066696c6c3a2077686974653b20666f6e742d66616d696c793a2073657269663b20666f6e742d73697a653a20323470783b207d3c2f7374796c653e3c726563742077696474683d273130302527206865696768743d2731303025272066696c6c3d27626c61636b27202f3e3c7465787420783d273530252720793d273530252720636c6173733d27626173652720646f6d696e616e742d626173656c696e653d276d6964646c652720746578742d616e63686f723d276d6964646c65273e",
  "linkReferences": {},
  "deployedLinkReferences": {}
}