{
  "_format": "hh-sol-artifact-1",
  "contractName": "NFT",
  "sourceName": "contracts/NFT.sol",
  "abi": [
    {
      "inputs": [],
      "stateMutability": "nonpayable",
      "type": "constructor"
    },
    {
      "anonymous": false,
      "inputs": [
        {
          "indexed": true,
          "internalType": "address",
          "name": "owner",
          "type": "address"
        },
        {
          "indexed": true,
          "internalType": "address",
          "name": "approved",
          "type": "address"
        },
        {
          "indexed": true,
          "internalType": "uint256",
          "name": "tokenId",
          "type": "uint256"
        }
      ],
      "name": "Approval",
      "type": "event"
    },
    {
      "anonymous": false,
      "inputs": [
        {
          "indexed": true,
          "internalType": "address",
          "name": "owner",
          "type": "address"
        },
        {
          "indexed": true,
          "internalType": "address",
          "name": "operator",
          "type": "address"
        },
        {
          "indexed": false,
          "internalType": "bool",
          "name": "approved",
          "type": "bool"
        }
      ],
      "name": "ApprovalForAll",
      "type": "event"
    },
    {
      "anonymous": false,
      "inputs": [
        {
          "indexed": true,
          "internalType": "address",
          "name": "sender",
          "type": "address"
        },
        {
          "indexed": true,
          "internalType": "uint256",
          "name": "tokenId",
          "type": "uint256"
        }
      ],
      "name": "NewNFTMinted",
      "type": "event"
    },
    {
      "anonymous": false,
      "inputs": [
        {
          "indexed": true,
          "internalType": "address",
          "name": "from",
          "type": "address"
        },
        {
          "indexed": true,
          "internalType": "address",
          "name": "to",
          "type": "address"
        },
        {
          "indexed": true,
          "internalType": "uint256",
          "name": "tokenId",
          "type": "uint256"
        }
      ],
      "name": "Transfer",
      "type": "event"
    },
    {
      "inputs": [
        {
          "internalType": "address",
          "name": "to",
          "type": "address"
        },
        {
          "internalType": "uint256",
          "name": "tokenId",
          "type": "uint256"
        }
      ],
      "name": "approve",
      "outputs": [],
      "stateMutability": "nonpayable",
      "type": "function"
    },
    {
      "inputs": [
        {
          "internalType": "address",
          "name": "owner",
          "type": "address"
        }
      ],
      "name": "balanceOf",
      "outputs": [
        {
          "internalType": "uint256",
          "name": "",
          "type": "uint256"
        }
      ],
      "stateMutability": "view",
      "type": "function"
    },
    {
      "inputs": [
        {
          "internalType": "uint256",
          "name": "tokenId",
          "type": "uint256"
        }
      ],
      "name": "getApproved",
      "outputs": [
        {
          "internalType": "address",
          "name": "",
          "type": "address"
        }
      ],
      "stateMutability": "view",
      "type": "function"
    },
    {
      "inputs": [],
      "name": "getTotalSupply",
      "outputs": [
        {
          "internalType": "uint256",
          "name": "",
          "type": "uint256"
        }
      ],
      "stateMutability": "view",
      "type": "function"
    },
    {
      "inputs": [
        {
          "internalType": "address",
          "name": "owner",
          "type": "address"
        },
        {
          "internalType": "address",
          "name": "operator",
          "type": "address"
        }
      ],
      "name": "isApprovedForAll",
      "outputs": [
        {
          "internalType": "bool",
          "name": "",
          "type": "bool"
        }
      ],
      "stateMutability": "view",
      "type": "function"
    },
    {
      "inputs": [],
      "name": "mint",
      "outputs": [],
      "stateMutability": "payable",
      "type": "function"
    },
    {
      "inputs": [],
      "name": "name",
      "outputs": [
        {
          "internalType": "string",
          "name": "",
          "type": "string"
        }
      ],
      "stateMutability": "view",
      "type": "function"
    },
    {
      "inputs": [
        {
          "internalType": "uint256",
          "name": "tokenId",
          "type": "uint256"
        }
      ],
      "name": "ownerOf",
      "outputs": [
        {
          "internalType": "address",
          "name": "",
          "type": "address"
        }
      ],
      "stateMutability": "view",
      "type": "function"
    },
    {
      "inputs": [
        {
          "internalType": "uint256",
          "name": "tokenId",
          "type": "uint256"
        }
      ],
      "name": "pickRandomFirstWord",
      "outputs": [
        {
          "internalType": "string",
          "name": "",
          "type": "string"
        }
      ],
      "stateMutability": "view",
      "type": "function"
    },
    {
      "inputs": [
        {
          "internalType": "uint256",
          "name": "tokenId",
          "type": "uint256"
        }
      ],
      "name": "pickRandomSecondWord",
      "outputs": [
        {
          "internalType": "string",
          "name": "",
          "type": "string"
        }
      ],
      "stateMutability": "view",
      "type": "function"
    },
    {
      "inputs": [
        {
          "internalType": "uint256",
          "name": "tokenId",
          "type": "uint256"
        }
      ],
      "name": "pickRandomThirdWord",
      "outputs": [
        {
          "internalType": "string",
          "name": "",
          "type": "string"
        }
      ],
      "stateMutability": "view",
      "type": "function"
    },
    {
      "inputs": [
        {
          "internalType": "address",
          "name": "from",
          "type": "address"
        },
        {
          "internalType": "address",
          "name": "to",
          "type": "address"
        },
        {
          "internalType": "uint256",
          "name": "tokenId",
          "type": "uint256"
        }
      ],
      "name": "safeTransferFrom",
      "outputs": [],
      "stateMutability": "nonpayable",
      "type": "function"
    },
    {
      "inputs": [
        {
          "internalType": "address",
          "name": "from",
          "type": "address"
        },
        {
          "internalType": "address",
          "name": "to",
          "type": "address"
        },
        {
          "internalType": "uint256",
          "name": "tokenId",
          "type": "uint256"
        },
        {
          "internalType": "bytes",
          "name": "_data",
          "type": "bytes"
        }
      ],
      "name": "safeTransferFrom",
      "outputs": [],
      "stateMutability": "nonpayable",
      "type": "function"
    },
    {
      "inputs": [
        {
          "internalType": "address",
          "name": "operator",
          "type": "address"
        },
        {
          "internalType": "bool",
          "name": "approved",
          "type": "bool"
        }
      ],
      "name": "setApprovalForAll",
      "outputs": [],
      "stateMutability": "nonpayable",
      "type": "function"
    },
    {
      "inputs": [
        {
          "internalType": "bytes4",
          "name": "interfaceId",
          "type": "bytes4"
        }
      ],
      "name": "supportsInterface",
      "outputs": [
        {
          "internalType": "bool",
          "name": "",
          "type": "bool"
        }
      ],
      "stateMutability": "view",
      "type": "function"
    },
    {
      "inputs": [],
      "name": "symbol",
      "outputs": [
        {
          "internalType": "string",
          "name": "",
          "type": "string"
        }
      ],
      "stateMutability": "view",
      "type": "function"
    },
    {
      "inputs": [
        {
          "internalType": "uint256",
          "name": "tokenId",
          "type": "uint256"
        }
      ],
      "name": "tokenURI",
      "outputs": [
        {
          "internalType": "string",
          "name": "",
          "type": "string"
        }
      ],
      "stateMutability": "view",
      "type": "function"
    },
    {
      "inputs": [],
      "name": "totalSupply",
      "outputs": [
        {
          "internalType": "uint256",
          "name": "",
          "type": "uint256"
        }
      ],
      "stateMutability": "view",
      "type": "function"
    },
    {
      "inputs": [
        {
          "internalType": "address",
          "name": "from",
          "type": "address"
        },
        {
          "internalType": "address",
          "name": "to",
          "type": "address"
        },
        {
          "internalType": "uint256",
          "name": "tokenId",
          "type": "uint256"
        }
      ],
      "name": "transferFrom",
      "outputs": [],
      "stateMutability": "nonpayable",
      "type": "function"
    }
  ],
  "bytecode": "0x6080604052603260085560405180610160016040528061012f81526020016200515461012f9139600990805190602001906200003d92919062001333565b506040518061030001604052806040518060400160405280600681526020017f416672616964000000000000000000000000000000000000000000000000000081525081526020016040518060400160405280600981526020017f416767726965766564000000000000000000000000000000000000000000000081525081526020016040518060400160405280600881526020017f416769746174656400000000000000000000000000000000000000000000000081525081526020016040518060400160405280600981526020017f416772656561626c65000000000000000000000000000000000000000000000081525081526020016040518060400160405280600681526020017f416d617a6564000000000000000000000000000000000000000000000000000081525081526020016040518060400160405280600381526020017f426164000000000000000000000000000000000000000000000000000000000081525081526020016040518060400160405280600881526020017f426572656176656400000000000000000000000000000000000000000000000081525081526020016040518060400160405280600a81526020017f426577696c64657265640000000000000000000000000000000000000000000081525081526020016040518060400160405280600581526020017f426f72656400000000000000000000000000000000000000000000000000000081525081526020016040518060400160405280600981526020017f427261766543616c6d000000000000000000000000000000000000000000000081525081526020016040518060400160405280600781526020017f4361726566756c0000000000000000000000000000000000000000000000000081525081526020016040518060400160405280600781526020017f4365727461696e0000000000000000000000000000000000000000000000000081525081526020016040518060400160405280600781526020017f436861726765640000000000000000000000000000000000000000000000000081525081526020016040518060400160405280600881526020017f436861726d696e6700000000000000000000000000000000000000000000000081525081526020016040518060400160405280600981526020017f44616e6765726f7573000000000000000000000000000000000000000000000081525081526020016040518060400160405280600881526020017f446566656174656400000000000000000000000000000000000000000000000081525081526020016040518060400160405280600781526020017f44656669616e740000000000000000000000000000000000000000000000000081525081526020016040518060400160405280600a81526020017f44656c6967687466756c0000000000000000000000000000000000000000000081525081526020016040518060400160405280600981526020017f446570726573736564000000000000000000000000000000000000000000000081525081526020016040518060400160405280600581526020017f456167657200000000000000000000000000000000000000000000000000000081525081526020016040518060400160405280600681526020017f456c61746564000000000000000000000000000000000000000000000000000081525081526020016040518060400160405280600b81526020017f456d62617272617373656400000000000000000000000000000000000000000081525081526020016040518060400160405280600a81526020017f456e6368616e74696e670000000000000000000000000000000000000000000081525081526020016040518060400160405280600b81526020017f456e636f75726167696e67000000000000000000000000000000000000000000815250815250600a906018620005e2929190620013c4565b506040518061032001604052806040518060400160405280600381526020017f526564000000000000000000000000000000000000000000000000000000000081525081526020016040518060400160405280600481526020017f426c75650000000000000000000000000000000000000000000000000000000081525081526020016040518060400160405280600581526020017f477265656e00000000000000000000000000000000000000000000000000000081525081526020016040518060400160405280600481526020017f50696e6b0000000000000000000000000000000000000000000000000000000081525081526020016040518060400160405280600681526020017f4f72616e6765000000000000000000000000000000000000000000000000000081525081526020016040518060400160405280600681526020017f59656c6c6f77000000000000000000000000000000000000000000000000000081525081526020016040518060400160405280600581526020017f426c61636b00000000000000000000000000000000000000000000000000000081525081526020016040518060400160405280600581526020017f576869746500000000000000000000000000000000000000000000000000000081525081526020016040518060400160405280600681526020017f507572706c65000000000000000000000000000000000000000000000000000081525081526020016040518060400160405280600481526020017f4379616e0000000000000000000000000000000000000000000000000000000081525081526020016040518060400160405280600781526020017f4d6167656e74610000000000000000000000000000000000000000000000000081525081526020016040518060400160405280600581526020017f42726f776e00000000000000000000000000000000000000000000000000000081525081526020016040518060400160405280600681526020017f56696f6c6574000000000000000000000000000000000000000000000000000081525081526020016040518060400160405280600681526020017f436f70706572000000000000000000000000000000000000000000000000000081525081526020016040518060400160405280600481526020017f477265790000000000000000000000000000000000000000000000000000000081525081526020016040518060400160405280600581526020017f437265616d00000000000000000000000000000000000000000000000000000081525081526020016040518060400160405280600481526020017f4c696d650000000000000000000000000000000000000000000000000000000081525081526020016040518060400160405280600581526020017f426569676500000000000000000000000000000000000000000000000000000081525081526020016040518060400160405280600581526020017f416d62657200000000000000000000000000000000000000000000000000000081525081526020016040518060400160405280600681526020017f416c6d6f6e64000000000000000000000000000000000000000000000000000081525081526020016040518060400160405280600481526020017f417175610000000000000000000000000000000000000000000000000000000081525081526020016040518060400160405280600881526020017f4567677368656c6c00000000000000000000000000000000000000000000000081525081526020016040518060400160405280600581526020017f466c616d6500000000000000000000000000000000000000000000000000000081525081526020016040518060400160405280600481526020017f466c61780000000000000000000000000000000000000000000000000000000081525081526020016040518060400160405280600581526020017f45626f6e79000000000000000000000000000000000000000000000000000000815250815250600b90601962000bc29291906200142b565b506040518061030001604052806040518060400160405280600781526020017f42756666616c6f0000000000000000000000000000000000000000000000000081525081526020016040518060400160405280600681526020017f526162626974000000000000000000000000000000000000000000000000000081525081526020016040518060400160405280600381526020017f446f67000000000000000000000000000000000000000000000000000000000081525081526020016040518060400160405280600681526020017f4261626f6f6e000000000000000000000000000000000000000000000000000081525081526020016040518060400160405280600381526020017f426174000000000000000000000000000000000000000000000000000000000081525081526020016040518060400160405280600381526020017f466f78000000000000000000000000000000000000000000000000000000000081525081526020016040518060400160405280600781526020017f436865657461680000000000000000000000000000000000000000000000000081525081526020016040518060400160405280600a81526020017f4368696d70616e7a65650000000000000000000000000000000000000000000081525081526020016040518060400160405280600681526020017f4d6f6e6b6579000000000000000000000000000000000000000000000000000081525081526020016040518060400160405280600881526020017f4d6f6e676f6f736500000000000000000000000000000000000000000000000081525081526020016040518060400160405280600881526020017f456c657068616e7400000000000000000000000000000000000000000000000081525081526020016040518060400160405280600481526020017f576f6c660000000000000000000000000000000000000000000000000000000081525081526020016040518060400160405280600581526020017f5a6562726100000000000000000000000000000000000000000000000000000081525081526020016040518060400160405280600881526020017f4865646765686f6700000000000000000000000000000000000000000000000081525081526020016040518060400160405280600481526020017f4c696f6e0000000000000000000000000000000000000000000000000000000081525081526020016040518060400160405280600481526020017f426561720000000000000000000000000000000000000000000000000000000081525081526020016040518060400160405280600781526020017f476f72696c6c610000000000000000000000000000000000000000000000000081525081526020016040518060400160405280600781526020017f4f7374726963680000000000000000000000000000000000000000000000000081525081526020016040518060400160405280600581526020017f5268696e6f00000000000000000000000000000000000000000000000000000081525081526020016040518060400160405280600781526020017f57617274686f670000000000000000000000000000000000000000000000000081525081526020016040518060400160405280600781526020017f476972616666650000000000000000000000000000000000000000000000000081525081526020016040518060400160405280600581526020017f4879656e6100000000000000000000000000000000000000000000000000000081525081526020016040518060400160405280600481526020017f446565720000000000000000000000000000000000000000000000000000000081525081526020016040518060400160405280600981526020017f4d7573654d6f7573650000000000000000000000000000000000000000000000815250815250600c90601862001167929190620013c4565b503480156200117557600080fd5b506040518060400160405280600c81526020017f416e6f6e796d6f75734e465400000000000000000000000000000000000000008152506040518060400160405280600381526020017f57414100000000000000000000000000000000000000000000000000000000008152508160009080519060200190620011fa92919062001333565b5080600190805190602001906200121392919062001333565b505050620012616040518060400160405280601e81526020017f54686973206973206d79204e465420636f6e74726163742e20576f61682100008152506200126760201b6200139c1760201c565b6200164c565b62001307816040516024016200127e919062001560565b6040516020818303038152906040527f41304fac000000000000000000000000000000000000000000000000000000007bffffffffffffffffffffffffffffffffffffffffffffffffffffffff19166020820180517bffffffffffffffffffffffffffffffffffffffffffffffffffffffff83818316178352505050506200130a60201b60201c565b50565b60008151905060006a636f6e736f6c652e6c6f679050602083016000808483855afa5050505050565b8280546200134190620015d6565b90600052602060002090601f016020900481019282620013655760008555620013b1565b82601f106200138057805160ff1916838001178555620013b1565b82800160010185558215620013b1579182015b82811115620013b057825182559160200191906001019062001393565b5b509050620013c0919062001492565b5090565b82805482825590600052602060002090810192821562001418579160200282015b82811115620014175782518290805190602001906200140692919062001333565b5091602001919060010190620013e5565b5b509050620014279190620014b1565b5090565b8280548282559060005260206000209081019282156200147f579160200282015b828111156200147e5782518290805190602001906200146d92919062001333565b50916020019190600101906200144c565b5b5090506200148e9190620014b1565b5090565b5b80821115620014ad57600081600090555060010162001493565b5090565b5b80821115620014d55760008181620014cb9190620014d9565b50600101620014b2565b5090565b508054620014e790620015d6565b6000825580601f10620014fb57506200151c565b601f0160209004906000526020600020908101906200151b919062001492565b5b50565b60006200152c8262001584565b6200153881856200158f565b93506200154a818560208601620015a0565b62001555816200163b565b840191505092915050565b600060208201905081810360008301526200157c81846200151f565b905092915050565b600081519050919050565b600082825260208201905092915050565b60005b83811015620015c0578082015181840152602081019050620015a3565b83811115620015d0576000848401525b50505050565b60006002820490506001821680620015ef57607f821691505b602082108114156200160657620016056200160c565b5b50919050565b7f4e487b7100000000000000000000000000000000000000000000000000000000600052602260045260246000fd5b6000601f19601f8301169050919050565b613af8806200165c6000396000f3fe6080604052600436106101145760003560e01c80636352211e116100a0578063b88d4fde11610064578063b88d4fde146103b6578063c4e41b22146103df578063c575757a1461040a578063c87b56dd14610447578063e985e9c51461048457610114565b80636352211e146102ab57806370a08231146102e857806395d89b4114610325578063a22cb46514610350578063b187301f1461037957610114565b80631249c58b116100e75780631249c58b146101e757806318160ddd146101f157806323b872dd1461021c5780632de38d681461024557806342842e0e1461028257610114565b806301ffc9a71461011957806306fdde0314610156578063081812fc14610181578063095ea7b3146101be575b600080fd5b34801561012557600080fd5b50610140600480360381019061013b919061262f565b6104c1565b60405161014d9190612d10565b60405180910390f35b34801561016257600080fd5b5061016b6105a3565b6040516101789190612d2b565b60405180910390f35b34801561018d57600080fd5b506101a860048036038101906101a39190612681565b610635565b6040516101b59190612ca9565b60405180910390f35b3480156101ca57600080fd5b506101e560048036038101906101e091906125f3565b6106ba565b005b6101ef6107d2565b005b3480156101fd57600080fd5b506102066109ed565b6040516102139190612f8b565b60405180910390f35b34801561022857600080fd5b50610243600480360381019061023e91906124ed565b6109f3565b005b34801561025157600080fd5b5061026c60048036038101906102679190612681565b610a53565b6040516102799190612d2b565b60405180910390f35b34801561028e57600080fd5b506102a960048036038101906102a491906124ed565b610b71565b005b3480156102b757600080fd5b506102d260048036038101906102cd9190612681565b610b91565b6040516102df9190612ca9565b60405180910390f35b3480156102f457600080fd5b5061030f600480360381019061030a9190612488565b610c43565b60405161031c9190612f8b565b60405180910390f35b34801561033157600080fd5b5061033a610cfb565b6040516103479190612d2b565b60405180910390f35b34801561035c57600080fd5b50610377600480360381019061037291906125b7565b610d8d565b005b34801561038557600080fd5b506103a0600480360381019061039b9190612681565b610f0e565b6040516103ad9190612d2b565b60405180910390f35b3480156103c257600080fd5b506103dd60048036038101906103d8919061253c565b61102c565b005b3480156103eb57600080fd5b506103f461108e565b6040516104019190612f8b565b60405180910390f35b34801561041657600080fd5b50610431600480360381019061042c9190612681565b611098565b60405161043e9190612d2b565b60405180910390f35b34801561045357600080fd5b5061046e60048036038101906104699190612681565b6111b6565b60405161047b9190612d2b565b60405180910390f35b34801561049057600080fd5b506104ab60048036038101906104a691906124b1565b611308565b6040516104b89190612d10565b60405180910390f35b60007f80ac58cd000000000000000000000000000000000000000000000000000000007bffffffffffffffffffffffffffffffffffffffffffffffffffffffff1916827bffffffffffffffffffffffffffffffffffffffffffffffffffffffff1916148061058c57507f5b5e139f000000000000000000000000000000000000000000000000000000007bffffffffffffffffffffffffffffffffffffffffffffffffffffffff1916827bffffffffffffffffffffffffffffffffffffffffffffffffffffffff1916145b8061059c575061059b82611435565b5b9050919050565b6060600080546105b29061321f565b80601f01602080910402602001604051908101604052809291908181526020018280546105de9061321f565b801561062b5780601f106106005761010080835404028352916020019161062b565b820191906000526020600020905b81548152906001019060200180831161060e57829003601f168201915b5050505050905090565b60006106408261149f565b61067f576040517f08c379a000000000000000000000000000000000000000000000000000000000815260040161067690612eeb565b60405180910390fd5b6004600083815260200190815260200160002060009054906101000a900473ffffffffffffffffffffffffffffffffffffffff169050919050565b60006106c582610b91565b90508073ffffffffffffffffffffffffffffffffffffffff168373ffffffffffffffffffffffffffffffffffffffff161415610736576040517f08c379a000000000000000000000000000000000000000000000000000000000815260040161072d90612f4b565b60405180910390fd5b8073ffffffffffffffffffffffffffffffffffffffff1661075561150b565b73ffffffffffffffffffffffffffffffffffffffff16148061078457506107838161077e61150b565b611308565b5b6107c3576040517f08c379a00000000000000000000000000000000000000000000000000000000081526004016107ba90612e2b565b60405180910390fd5b6107cd8383611513565b505050565b6000600854116107e157600080fd5b6001600860008282546107f49190613135565b92505081905550600061080760076115cc565b9050600061081482610a53565b9050600061082183610f0e565b9050600061082e84611098565b9050600083838360405160200161084793929190612b7c565b6040516020818303038152906040529050600060098260405160200161086e929190612bad565b604051602081830303815290604052905060006108b38361088e846115da565b60405160200161089f929190612c20565b6040516020818303038152906040526115da565b90506000816040516020016108c89190612c87565b60405160208183030381529060405290506109176040518060400160405280601581526020017f0a2d2d2d2d2d2d2d2d2d2d2d2d2d2d2d2d2d2d2d2d000000000000000000000081525061139c565b6109208161139c565b61095e6040518060400160405280601581526020017f2d2d2d2d2d2d2d2d2d2d2d2d2d2d2d2d2d2d2d2d0a000000000000000000000081525061139c565b6109683389611798565b61097288826117b6565b610995604051806060016040528060258152602001613a5e60259139893361182a565b61099f60076118c9565b873373ffffffffffffffffffffffffffffffffffffffff167f1c05098ed1ff38e6238d2b1b04b2c7977d4c94ce651bda6473f9dba8dbf01da060405160405180910390a35050505050505050565b60085481565b610a046109fe61150b565b826118df565b610a43576040517f08c379a0000000000000000000000000000000000000000000000000000000008152600401610a3a90612f6b565b60405180910390fd5b610a4e8383836119bd565b505050565b60606000610a87610a6384611c19565b604051602001610a739190612c65565b604051602081830303815290604052611dc6565b9050600a8054905081610a9a91906132cb565b9050600a8181548110610ad6577f4e487b7100000000000000000000000000000000000000000000000000000000600052603260045260246000fd5b906000526020600020018054610aeb9061321f565b80601f0160208091040260200160405190810160405280929190818152602001828054610b179061321f565b8015610b645780601f10610b3957610100808354040283529160200191610b64565b820191906000526020600020905b815481529060010190602001808311610b4757829003601f168201915b5050505050915050919050565b610b8c8383836040518060200160405280600081525061102c565b505050565b6000806002600084815260200190815260200160002060009054906101000a900473ffffffffffffffffffffffffffffffffffffffff169050600073ffffffffffffffffffffffffffffffffffffffff168173ffffffffffffffffffffffffffffffffffffffff161415610c3a576040517f08c379a0000000000000000000000000000000000000000000000000000000008152600401610c3190612e6b565b60405180910390fd5b80915050919050565b60008073ffffffffffffffffffffffffffffffffffffffff168273ffffffffffffffffffffffffffffffffffffffff161415610cb4576040517f08c379a0000000000000000000000000000000000000000000000000000000008152600401610cab90612e4b565b60405180910390fd5b600360008373ffffffffffffffffffffffffffffffffffffffff1673ffffffffffffffffffffffffffffffffffffffff168152602001908152602001600020549050919050565b606060018054610d0a9061321f565b80601f0160208091040260200160405190810160405280929190818152602001828054610d369061321f565b8015610d835780601f10610d5857610100808354040283529160200191610d83565b820191906000526020600020905b815481529060010190602001808311610d6657829003601f168201915b5050505050905090565b610d9561150b565b73ffffffffffffffffffffffffffffffffffffffff168273ffffffffffffffffffffffffffffffffffffffff161415610e03576040517f08c379a0000000000000000000000000000000000000000000000000000000008152600401610dfa90612deb565b60405180910390fd5b8060056000610e1061150b565b73ffffffffffffffffffffffffffffffffffffffff1673ffffffffffffffffffffffffffffffffffffffff16815260200190815260200160002060008473ffffffffffffffffffffffffffffffffffffffff1673ffffffffffffffffffffffffffffffffffffffff16815260200190815260200160002060006101000a81548160ff0219169083151502179055508173ffffffffffffffffffffffffffffffffffffffff16610ebd61150b565b73ffffffffffffffffffffffffffffffffffffffff167f17307eab39ab6107e8899845ad3d59bd9653f200f220920489ca2b5937696c3183604051610f029190612d10565b60405180910390a35050565b60606000610f42610f1e84611c19565b604051602001610f2e9190612bfe565b604051602081830303815290604052611dc6565b9050600b8054905081610f5591906132cb565b9050600b8181548110610f91577f4e487b7100000000000000000000000000000000000000000000000000000000600052603260045260246000fd5b906000526020600020018054610fa69061321f565b80601f0160208091040260200160405190810160405280929190818152602001828054610fd29061321f565b801561101f5780601f10610ff45761010080835404028352916020019161101f565b820191906000526020600020905b81548152906001019060200180831161100257829003601f168201915b5050505050915050919050565b61103d61103761150b565b836118df565b61107c576040517f08c379a000000000000000000000000000000000000000000000000000000000815260040161107390612f6b565b60405180910390fd5b61108884848484611df9565b50505050565b6000600854905090565b606060006110cc6110a884611c19565b6040516020016110b89190612bdc565b604051602081830303815290604052611dc6565b9050600c80549050816110df91906132cb565b9050600c818154811061111b577f4e487b7100000000000000000000000000000000000000000000000000000000600052603260045260246000fd5b9060005260206000200180546111309061321f565b80601f016020809104026020016040519081016040528092919081815260200182805461115c9061321f565b80156111a95780601f1061117e576101008083540402835291602001916111a9565b820191906000526020600020905b81548152906001019060200180831161118c57829003601f168201915b5050505050915050919050565b60606111c18261149f565b611200576040517f08c379a00000000000000000000000000000000000000000000000000000000081526004016111f790612ecb565b60405180910390fd5b60006006600084815260200190815260200160002080546112209061321f565b80601f016020809104026020016040519081016040528092919081815260200182805461124c9061321f565b80156112995780601f1061126e57610100808354040283529160200191611299565b820191906000526020600020905b81548152906001019060200180831161127c57829003601f168201915b5050505050905060006112aa611e55565b90506000815114156112c0578192505050611303565b6000825111156112f55780826040516020016112dd929190612b58565b60405160208183030381529060405292505050611303565b6112fe84611e6c565b925050505b919050565b6000600560008473ffffffffffffffffffffffffffffffffffffffff1673ffffffffffffffffffffffffffffffffffffffff16815260200190815260200160002060008373ffffffffffffffffffffffffffffffffffffffff1673ffffffffffffffffffffffffffffffffffffffff16815260200190815260200160002060009054906101000a900460ff16905092915050565b611432816040516024016113b09190612d2b565b6040516020818303038152906040527f41304fac000000000000000000000000000000000000000000000000000000007bffffffffffffffffffffffffffffffffffffffffffffffffffffffff19166020820180517bffffffffffffffffffffffffffffffffffffffffffffffffffffffff8381831617835250505050611f13565b50565b60007f01ffc9a7000000000000000000000000000000000000000000000000000000007bffffffffffffffffffffffffffffffffffffffffffffffffffffffff1916827bffffffffffffffffffffffffffffffffffffffffffffffffffffffff1916149050919050565b60008073ffffffffffffffffffffffffffffffffffffffff166002600084815260200190815260200160002060009054906101000a900473ffffffffffffffffffffffffffffffffffffffff1673ffffffffffffffffffffffffffffffffffffffff1614159050919050565b600033905090565b816004600083815260200190815260200160002060006101000a81548173ffffffffffffffffffffffffffffffffffffffff021916908373ffffffffffffffffffffffffffffffffffffffff160217905550808273ffffffffffffffffffffffffffffffffffffffff1661158683610b91565b73ffffffffffffffffffffffffffffffffffffffff167f8c5be1e5ebec7d5bd14f71427d1e84f3dd0314c0f7b2291e5b200ac8c7c3b92560405160405180910390a45050565b600081600001549050919050565b606060008251905060008114156116035760405180602001604052806000815250915050611793565b600060036002836116149190613054565b61161e91906130aa565b600461162a91906130db565b9050600060208261163b9190613054565b67ffffffffffffffff81111561167a577f4e487b7100000000000000000000000000000000000000000000000000000000600052604160045260246000fd5b6040519080825280601f01601f1916602001820160405280156116ac5781602001600182028036833780820191505090505b5090506000604051806060016040528060408152602001613a83604091399050600181016020830160005b868110156117505760038101905062ffffff818a015116603f8160121c168401518060081b905060ff603f83600c1c1686015116810190508060081b905060ff603f8360061c1686015116810190508060081b905060ff603f831686015116810190508060e01b905080845260048401935050506116d7565b50600386066001811461176a576002811461177a57611785565b613d3d60f01b6002830352611785565b603d60f81b60018303525b508484525050819450505050505b919050565b6117b2828260405180602001604052806000815250611f3c565b5050565b6117bf8261149f565b6117fe576040517f08c379a00000000000000000000000000000000000000000000000000000000081526004016117f590612e8b565b60405180910390fd5b80600660008481526020019081526020016000209080519060200190611825929190612314565b505050565b6118c483838360405160240161184293929190612d4d565b6040516020818303038152906040527fe3849f79000000000000000000000000000000000000000000000000000000007bffffffffffffffffffffffffffffffffffffffffffffffffffffffff19166020820180517bffffffffffffffffffffffffffffffffffffffffffffffffffffffff8381831617835250505050611f13565b505050565b6001816000016000828254019250508190555050565b60006118ea8261149f565b611929576040517f08c379a000000000000000000000000000000000000000000000000000000000815260040161192090612e0b565b60405180910390fd5b600061193483610b91565b90508073ffffffffffffffffffffffffffffffffffffffff168473ffffffffffffffffffffffffffffffffffffffff1614806119a357508373ffffffffffffffffffffffffffffffffffffffff1661198b84610635565b73ffffffffffffffffffffffffffffffffffffffff16145b806119b457506119b38185611308565b5b91505092915050565b8273ffffffffffffffffffffffffffffffffffffffff166119dd82610b91565b73ffffffffffffffffffffffffffffffffffffffff1614611a33576040517f08c379a0000000000000000000000000000000000000000000000000000000008152600401611a2a90612f0b565b60405180910390fd5b600073ffffffffffffffffffffffffffffffffffffffff168273ffffffffffffffffffffffffffffffffffffffff161415611aa3576040517f08c379a0000000000000000000000000000000000000000000000000000000008152600401611a9a90612dcb565b60405180910390fd5b611aae838383611f97565b611ab9600082611513565b6001600360008573ffffffffffffffffffffffffffffffffffffffff1673ffffffffffffffffffffffffffffffffffffffff1681526020019081526020016000206000828254611b099190613135565b925050819055506001600360008473ffffffffffffffffffffffffffffffffffffffff1673ffffffffffffffffffffffffffffffffffffffff1681526020019081526020016000206000828254611b609190613054565b92505081905550816002600083815260200190815260200160002060006101000a81548173ffffffffffffffffffffffffffffffffffffffff021916908373ffffffffffffffffffffffffffffffffffffffff160217905550808273ffffffffffffffffffffffffffffffffffffffff168473ffffffffffffffffffffffffffffffffffffffff167fddf252ad1be2c89b69c2b068fc378daa952ba7f163c4a11628f55a4df523b3ef60405160405180910390a4505050565b60606000821415611c61576040518060400160405280600181526020017f30000000000000000000000000000000000000000000000000000000000000008152509050611dc1565b600082905060005b60008214611c93578080611c7c90613282565b915050600a82611c8c91906130aa565b9150611c69565b60008167ffffffffffffffff811115611cd5577f4e487b7100000000000000000000000000000000000000000000000000000000600052604160045260246000fd5b6040519080825280601f01601f191660200182016040528015611d075781602001600182028036833780820191505090505b5090505b60008514611dba57600182611d209190613135565b9150600a85611d2f91906132cb565b6030611d3b9190613054565b60f81b818381518110611d77577f4e487b7100000000000000000000000000000000000000000000000000000000600052603260045260246000fd5b60200101907effffffffffffffffffffffffffffffffffffffffffffffffffffffffffffff1916908160001a905350600a85611db391906130aa565b9450611d0b565b8093505050505b919050565b600081604051602001611dd99190612b41565b6040516020818303038152906040528051906020012060001c9050919050565b611e048484846119bd565b611e1084848484611f9c565b611e4f576040517f08c379a0000000000000000000000000000000000000000000000000000000008152600401611e4690612d8b565b60405180910390fd5b50505050565b606060405180602001604052806000815250905090565b6060611e778261149f565b611eb6576040517f08c379a0000000000000000000000000000000000000000000000000000000008152600401611ead90612f2b565b60405180910390fd5b6000611ec0611e55565b90506000815111611ee05760405180602001604052806000815250611f0b565b80611eea84611c19565b604051602001611efb929190612b58565b6040516020818303038152906040525b915050919050565b60008151905060006a636f6e736f6c652e6c6f679050602083016000808483855afa5050505050565b611f468383612133565b611f536000848484611f9c565b611f92576040517f08c379a0000000000000000000000000000000000000000000000000000000008152600401611f8990612d8b565b60405180910390fd5b505050565b505050565b6000611fbd8473ffffffffffffffffffffffffffffffffffffffff16612301565b15612126578373ffffffffffffffffffffffffffffffffffffffff1663150b7a02611fe661150b565b8786866040518563ffffffff1660e01b81526004016120089493929190612cc4565b602060405180830381600087803b15801561202257600080fd5b505af192505050801561205357506040513d601f19601f820116820180604052508101906120509190612658565b60015b6120d6573d8060008114612083576040519150601f19603f3d011682016040523d82523d6000602084013e612088565b606091505b506000815114156120ce576040517f08c379a00000000000000000000000000000000000000000000000000000000081526004016120c590612d8b565b60405180910390fd5b805181602001fd5b63150b7a0260e01b7bffffffffffffffffffffffffffffffffffffffffffffffffffffffff1916817bffffffffffffffffffffffffffffffffffffffffffffffffffffffff19161491505061212b565b600190505b949350505050565b600073ffffffffffffffffffffffffffffffffffffffff168273ffffffffffffffffffffffffffffffffffffffff1614156121a3576040517f08c379a000000000000000000000000000000000000000000000000000000000815260040161219a90612eab565b60405180910390fd5b6121ac8161149f565b156121ec576040517f08c379a00000000000000000000000000000000000000000000000000000000081526004016121e390612dab565b60405180910390fd5b6121f860008383611f97565b6001600360008473ffffffffffffffffffffffffffffffffffffffff1673ffffffffffffffffffffffffffffffffffffffff16815260200190815260200160002060008282546122489190613054565b92505081905550816002600083815260200190815260200160002060006101000a81548173ffffffffffffffffffffffffffffffffffffffff021916908373ffffffffffffffffffffffffffffffffffffffff160217905550808273ffffffffffffffffffffffffffffffffffffffff16600073ffffffffffffffffffffffffffffffffffffffff167fddf252ad1be2c89b69c2b068fc378daa952ba7f163c4a11628f55a4df523b3ef60405160405180910390a45050565b600080823b905060008111915050919050565b8280546123209061321f565b90600052602060002090601f0160209004810192826123425760008555612389565b82601f1061235b57805160ff1916838001178555612389565b82800160010185558215612389579182015b8281111561238857825182559160200191906001019061236d565b5b509050612396919061239a565b5090565b5b808211156123b357600081600090555060010161239b565b5090565b60006123ca6123c584612fcb565b612fa6565b9050828152602081018484840111156123e257600080fd5b6123ed8482856131dd565b509392505050565b60008135905061240481613a01565b92915050565b60008135905061241981613a18565b92915050565b60008135905061242e81613a2f565b92915050565b60008151905061244381613a2f565b92915050565b600082601f83011261245a57600080fd5b813561246a8482602086016123b7565b91505092915050565b60008135905061248281613a46565b92915050565b60006020828403121561249a57600080fd5b60006124a8848285016123f5565b91505092915050565b600080604083850312156124c457600080fd5b60006124d2858286016123f5565b92505060206124e3858286016123f5565b9150509250929050565b60008060006060848603121561250257600080fd5b6000612510868287016123f5565b9350506020612521868287016123f5565b925050604061253286828701612473565b9150509250925092565b6000806000806080858703121561255257600080fd5b6000612560878288016123f5565b9450506020612571878288016123f5565b935050604061258287828801612473565b925050606085013567ffffffffffffffff81111561259f57600080fd5b6125ab87828801612449565b91505092959194509250565b600080604083850312156125ca57600080fd5b60006125d8858286016123f5565b92505060206125e98582860161240a565b9150509250929050565b6000806040838503121561260657600080fd5b6000612614858286016123f5565b925050602061262585828601612473565b9150509250929050565b60006020828403121561264157600080fd5b600061264f8482850161241f565b91505092915050565b60006020828403121561266a57600080fd5b600061267884828501612434565b91505092915050565b60006020828403121561269357600080fd5b60006126a184828501612473565b91505092915050565b6126b381613169565b82525050565b6126c28161317b565b82525050565b60006126d382613011565b6126dd8185613027565b93506126ed8185602086016131ec565b6126f6816133b8565b840191505092915050565b600061270c8261301c565b6127168185613038565b93506127268185602086016131ec565b61272f816133b8565b840191505092915050565b60006127458261301c565b61274f8185613049565b935061275f8185602086016131ec565b80840191505092915050565b600081546127788161321f565b6127828186613049565b9450600182166000811461279d57600181146127ae576127e1565b60ff198316865281860193506127e1565b6127b785612ffc565b60005b838110156127d9578154818901526001820191506020810190506127ba565b838801955050505b50505092915050565b60006127f7603283613038565b9150612802826133c9565b604082019050919050565b600061281a601c83613038565b915061282582613418565b602082019050919050565b600061283d600a83613049565b915061284882613441565b600a82019050919050565b6000612860607a83613049565b915061286b8261346a565b607a82019050919050565b6000612883602483613038565b915061288e82613505565b604082019050919050565b60006128a6601983613038565b91506128b182613554565b602082019050919050565b60006128c9600b83613049565b91506128d48261357d565b600b82019050919050565b60006128ec602c83613038565b91506128f7826135a6565b604082019050919050565b600061290f600d83613049565b915061291a826135f5565b600d82019050919050565b6000612932603883613038565b915061293d8261361e565b604082019050919050565b6000612955602a83613038565b91506129608261366d565b604082019050919050565b6000612978602983613038565b9150612983826136bc565b604082019050919050565b600061299b602e83613038565b91506129a68261370b565b604082019050919050565b60006129be600283613049565b91506129c98261375a565b600282019050919050565b60006129e1602083613038565b91506129ec82613783565b602082019050919050565b6000612a04603183613038565b9150612a0f826137ac565b604082019050919050565b6000612a27602c83613038565b9150612a32826137fb565b604082019050919050565b6000612a4a602983613038565b9150612a558261384a565b604082019050919050565b6000612a6d602f83613038565b9150612a7882613899565b604082019050919050565b6000612a90600a83613049565b9150612a9b826138e8565b600a82019050919050565b6000612ab3602183613038565b9150612abe82613911565b604082019050919050565b6000612ad6600a83613049565b9150612ae182613960565b600a82019050919050565b6000612af9601d83613049565b9150612b0482613989565b601d82019050919050565b6000612b1c603183613038565b9150612b27826139b2565b604082019050919050565b612b3b816131d3565b82525050565b6000612b4d828461273a565b915081905092915050565b6000612b64828561273a565b9150612b70828461273a565b91508190509392505050565b6000612b88828661273a565b9150612b94828561273a565b9150612ba0828461273a565b9150819050949350505050565b6000612bb9828561276b565b9150612bc5828461273a565b9150612bd082612902565b91508190509392505050565b6000612be782612830565b9150612bf3828461273a565b915081905092915050565b6000612c09826128bc565b9150612c15828461273a565b915081905092915050565b6000612c2b82612a83565b9150612c37828561273a565b9150612c4282612853565b9150612c4e828461273a565b9150612c59826129b1565b91508190509392505050565b6000612c7082612ac9565b9150612c7c828461273a565b915081905092915050565b6000612c9282612aec565b9150612c9e828461273a565b915081905092915050565b6000602082019050612cbe60008301846126aa565b92915050565b6000608082019050612cd960008301876126aa565b612ce660208301866126aa565b612cf36040830185612b32565b8181036060830152612d0581846126c8565b905095945050505050565b6000602082019050612d2560008301846126b9565b92915050565b60006020820190508181036000830152612d458184612701565b905092915050565b60006060820190508181036000830152612d678186612701565b9050612d766020830185612b32565b612d8360408301846126aa565b949350505050565b60006020820190508181036000830152612da4816127ea565b9050919050565b60006020820190508181036000830152612dc48161280d565b9050919050565b60006020820190508181036000830152612de481612876565b9050919050565b60006020820190508181036000830152612e0481612899565b9050919050565b60006020820190508181036000830152612e24816128df565b9050919050565b60006020820190508181036000830152612e4481612925565b9050919050565b60006020820190508181036000830152612e6481612948565b9050919050565b60006020820190508181036000830152612e848161296b565b9050919050565b60006020820190508181036000830152612ea48161298e565b9050919050565b60006020820190508181036000830152612ec4816129d4565b9050919050565b60006020820190508181036000830152612ee4816129f7565b9050919050565b60006020820190508181036000830152612f0481612a1a565b9050919050565b60006020820190508181036000830152612f2481612a3d565b9050919050565b60006020820190508181036000830152612f4481612a60565b9050919050565b60006020820190508181036000830152612f6481612aa6565b9050919050565b60006020820190508181036000830152612f8481612b0f565b9050919050565b6000602082019050612fa06000830184612b32565b92915050565b6000612fb0612fc1565b9050612fbc8282613251565b919050565b6000604051905090565b600067ffffffffffffffff821115612fe657612fe5613389565b5b612fef826133b8565b9050602081019050919050565b60008190508160005260206000209050919050565b600081519050919050565b600081519050919050565b600082825260208201905092915050565b600082825260208201905092915050565b600081905092915050565b600061305f826131d3565b915061306a836131d3565b9250827fffffffffffffffffffffffffffffffffffffffffffffffffffffffffffffffff0382111561309f5761309e6132fc565b5b828201905092915050565b60006130b5826131d3565b91506130c0836131d3565b9250826130d0576130cf61332b565b5b828204905092915050565b60006130e6826131d3565b91506130f1836131d3565b9250817fffffffffffffffffffffffffffffffffffffffffffffffffffffffffffffffff048311821515161561312a576131296132fc565b5b828202905092915050565b6000613140826131d3565b915061314b836131d3565b92508282101561315e5761315d6132fc565b5b828203905092915050565b6000613174826131b3565b9050919050565b60008115159050919050565b60007fffffffff0000000000000000000000000000000000000000000000000000000082169050919050565b600073ffffffffffffffffffffffffffffffffffffffff82169050919050565b6000819050919050565b82818337600083830152505050565b60005b8381101561320a5780820151818401526020810190506131ef565b83811115613219576000848401525b50505050565b6000600282049050600182168061323757607f821691505b6020821081141561324b5761324a61335a565b5b50919050565b61325a826133b8565b810181811067ffffffffffffffff8211171561327957613278613389565b5b80604052505050565b600061328d826131d3565b91507fffffffffffffffffffffffffffffffffffffffffffffffffffffffffffffffff8214156132c0576132bf6132fc565b5b600182019050919050565b60006132d6826131d3565b91506132e1836131d3565b9250826132f1576132f061332b565b5b828206905092915050565b7f4e487b7100000000000000000000000000000000000000000000000000000000600052601160045260246000fd5b7f4e487b7100000000000000000000000000000000000000000000000000000000600052601260045260246000fd5b7f4e487b7100000000000000000000000000000000000000000000000000000000600052602260045260246000fd5b7f4e487b7100000000000000000000000000000000000000000000000000000000600052604160045260246000fd5b6000601f19601f8301169050919050565b7f4552433732313a207472616e7366657220746f206e6f6e20455243373231526560008201527f63656976657220696d706c656d656e7465720000000000000000000000000000602082015250565b7f4552433732313a20746f6b656e20616c7265616479206d696e74656400000000600082015250565b7f54484952445f574f524400000000000000000000000000000000000000000000600082015250565b7f222c20226465736372697074696f6e223a20224120686967686c79206163636c60008201527f61696d656420636f6c6c656374696f6e206f6620636f6c6f7266756c20616e6460208201527f20656d6974696f6e616c20616e696d616c732e222c2022696d616765223a202260408201527f646174613a696d6167652f7376672b786d6c3b6261736536342c000000000000606082015250565b7f4552433732313a207472616e7366657220746f20746865207a65726f2061646460008201527f7265737300000000000000000000000000000000000000000000000000000000602082015250565b7f4552433732313a20617070726f766520746f2063616c6c657200000000000000600082015250565b7f5345434f4e445f574f5244000000000000000000000000000000000000000000600082015250565b7f4552433732313a206f70657261746f7220717565727920666f72206e6f6e657860008201527f697374656e7420746f6b656e0000000000000000000000000000000000000000602082015250565b7f3c2f746578743e3c2f7376673e00000000000000000000000000000000000000600082015250565b7f4552433732313a20617070726f76652063616c6c6572206973206e6f74206f7760008201527f6e6572206e6f7220617070726f76656420666f7220616c6c0000000000000000602082015250565b7f4552433732313a2062616c616e636520717565727920666f7220746865207a6560008201527f726f206164647265737300000000000000000000000000000000000000000000602082015250565b7f4552433732313a206f776e657220717565727920666f72206e6f6e657869737460008201527f656e7420746f6b656e0000000000000000000000000000000000000000000000602082015250565b7f45524337323155524953746f726167653a2055524920736574206f66206e6f6e60008201527f6578697374656e7420746f6b656e000000000000000000000000000000000000602082015250565b7f227d000000000000000000000000000000000000000000000000000000000000600082015250565b7f4552433732313a206d696e7420746f20746865207a65726f2061646472657373600082015250565b7f45524337323155524953746f726167653a2055524920717565727920666f722060008201527f6e6f6e6578697374656e7420746f6b656e000000000000000000000000000000602082015250565b7f4552433732313a20617070726f76656420717565727920666f72206e6f6e657860008201527f697374656e7420746f6b656e0000000000000000000000000000000000000000602082015250565b7f4552433732313a207472616e73666572206f6620746f6b656e2074686174206960008201527f73206e6f74206f776e0000000000000000000000000000000000000000000000602082015250565b7f4552433732314d657461646174613a2055524920717565727920666f72206e6f60008201527f6e6578697374656e7420746f6b656e0000000000000000000000000000000000602082015250565b7f7b226e616d65223a202200000000000000000000000000000000000000000000600082015250565b7f4552433732313a20617070726f76616c20746f2063757272656e74206f776e6560008201527f7200000000000000000000000000000000000000000000000000000000000000602082015250565b7f46495253545f574f524400000000000000000000000000000000000000000000600082015250565b7f646174613a6170706c69636174696f6e2f6a736f6e3b6261736536342c000000600082015250565b7f4552433732313a207472616e736665722063616c6c6572206973206e6f74206f60008201527f776e6572206e6f7220617070726f766564000000000000000000000000000000602082015250565b613a0a81613169565b8114613a1557600080fd5b50565b613a218161317b565b8114613a2c57600080fd5b50565b613a3881613187565b8114613a4357600080fd5b50565b613a4f816131d3565b8114613a5a57600080fd5b5056fe416e204e465420772f20494420257320686173206265656e206d696e74656420746f2025734142434445464748494a4b4c4d4e4f505152535455565758595a6162636465666768696a6b6c6d6e6f707172737475767778797a303132333435363738392b2fa2646970667358221220fcf2a76d631e361a3f43052375bbd84110491fd4390965c6820aa98a1300264a64736f6c634300080400333c73766720786d6c6e733d27687474703a2f2f7777772e77332e6f72672f323030302f73766727207072657365727665417370656374526174696f3d27784d696e594d696e206d656574272076696577426f783d273020302033353020333530273e3c7374796c653e2e62617365207b2066696c6c3a2077686974653b20666f6e742d66616d696c793a2073657269663b20666f6e742d73697a653a20323470783b207d3c2f7374796c653e3c726563742077696474683d273130302527206865696768743d2731303025272066696c6c3d27626c61636b27202f3e3c7465787420783d273530252720793d273530252720636c6173733d27626173652720646f6d696e616e742d626173656c696e653d276d6964646c652720746578742d616e63686f723d276d6964646c65273e",
  "linkReferences": {},
  "deployedLinkReferences": {}
}